:020000040800F2
:10000000B008002089010008D9240008F721000861
:10001000D52400088F0200082D2D000800000000E4
:10002000000000000000000000000000092500089A
:10003000E102000800000000DD2400080B25000894
:10004000A3010008A3010008A3010008A301000800
:10005000A3010008A3010008A3010008A3010008F0
:10006000A3010008A3010008A3010008A3010008E0
:10007000A3010008A301000895020008A5020008DA
:10008000A3010008A3010008A3010008A3010008C0
:10009000A3010008A3010008A3010008A3010008B0
:1000A000A3010008A3010008A3010008A3010008A0
:1000B000A301000879250008A3010008A301000896
:1000C000A3010008A3010008A3010008A301000880
:1000D000A30100081D2D0008A3010008A3010008CA
:1000E000A3010008A3010008A301000800F002F822
:1000F00000F03AF80AA090E8000C82448344AAF188
:100100000107DA4501D100F02FF8AFF2090EBAE885
:100110000F0013F0010F18BFFB1A43F0010318473B
:100120001845000038450000103A24BF78C878C14F
:10013000FAD8520724BF30C830C144BF04680C60ED
:10014000704700000023002400250026103A28BF35
:1001500078C1FBD8520728BF30C148BF0B60704739
:100160001FB51FBD10B510BD00F058F81146FFF7C0
:10017000F7FF02F00FFF00F076F803B4FFF7F2FF8D
:1001800003BC00F07DF8000009488047094800479B
:10019000FEE7FEE7FEE7FEE7FEE7FEE7FEE7FEE737
:1001A000FEE7FEE704480549054A064B7047000094
:1001B00075250008ED000008B0020020B0080020FE
:1001C000B0040020B00400204FF0000200B5134638
:1001D00094469646203922BFA0E80C50A0E80C5067
:1001E000B1F12001BFF4F7AF090728BFA0E80C5018
:1001F00048BF0CC05DF804EB890028BF40F8042B11
:1002000008BF704748BF20F8022B11F0804F18BF7D
:1002100000F8012B7047704770477047754600F033
:100220002BF8AE4605006946534620F00700854688
:1002300018B020B5FFF7B6FFBDE820404FF000062C
:100240004FF000074FF000084FF0000B21F00701BE
:10025000AC46ACE8C009ACE8C009ACE8C009ACE801
:10026000C0098D46704710B50446AFF300802046A4
:10027000BDE81040FFF781BF0048704750020020E2
:1002800001491820ABBEFEE726000200704700BF00
:10029000FEE7000010B5024800F0AAF810BD00000B
:1002A0008C01002010B5024800F0A2F810BD00003B
:1002B0004801002030B590F840500124AC40C56B97
:1002C0006C60046863604468102C04D10468A26008
:1002D0000468E16003E00468A1600468E26030BD86
:1002E000704772B600BFFEE70146002291F8210078
:1002F000022808D00420886300BF002081F8200075
:1003000000BF012070470868006820F00E000B68ED
:1003100018600868006820F001000B68186091F808
:10032000403001209840CB6B5860012081F82100BB
:1003300000BF002081F8200000BF1046E2E7000067
:1003400070B50446002594F82100022803D004204B
:10035000A063012548E02068006820F00E002168B5
:1003600008602068006820F00100216808601F49CB
:100370002068884201D1012026E01C491431206800
:10038000884201D110201FE0184928312068884296
:1003900001D1801518E015493C312068884201D10F
:1003A000801411E0114950312068884202D14FF485
:1003B000803009E00D4964312068884202D14FF451
:1003C000801001E04FF08070084908394860012032
:1003D00084F8210000BF002084F8200000BF606B7B
:1003E00010B12046616B8847284670BD0800024066
:1003F00070B50446E06B05682068066894F8401004
:10040000042088402840002846D006F00400002838
:1004100042D02068006800F0200028B920680068F9
:1004200020F004002168086057492068884201D103
:10043000042027E0544914312068884201D140202B
:1004400020E0514928312068884201D1001519E087
:100450004D493C312068884202D14FF4804011E080
:10046000494950312068884202D14FF4802009E088
:10047000454964312068884202D14FF4800001E090
:100480004FF08060404908394860E06A00287AD01F
:100490002046E16A884776E094F8401002208840C0
:1004A0002840A0B306F0020088B32068006800F07E
:1004B000200040B92068006820F00A002168086028
:1004C000012084F8210030492068884201D10220AF
:1004D00028E02D4914312068884201D1202021E0F4
:1004E000294928312068884201D140151AE026495F
:1004F0003C312068884202D14FF4005012E022497A
:1005000050312068884203D14FF400300AE017E0F0
:100510001D4964312068884202D14FF4001001E087
:100520004FF0007018490839486000BF002084F877
:10053000200000BFA06A30B32046A16A884722E0AD
:1005400094F84010082088402840E0B106F00800E8
:10055000C8B12068006820F00E002168086094F897
:10056000401001208840E16B48600120A06384F8BE
:10057000210000BF002084F8200000BF206B10B1D4
:100580002046216B884770BD0800024001460022CA
:1005900009B901207047164B0868C01A1423B0FB34
:1005A000F3F08000086412480838C863022081F81C
:1005B00021000868026843F6F0708243D1E9010324
:1005C0001843CB6818430B6918434B6918438B6970
:1005D0001843CB691843024308680260002088630F
:1005E000012081F82100002081F8200000BFD1E720
:1005F000080002402DE9F04104460D4616461F460C
:100600004FF0000800BF94F82000012802D102201A
:10061000BDE8F081012084F8200000BF94F821009B
:1006200001282CD1022084F821000020A06320683A
:10063000006820F00100216808603B4632462946E8
:100640002046FFF737FEE06A30B12068006840F0CE
:100650000E00216808600BE02068006820F00400AC
:10066000216808602068006840F00A00216808607E
:100670002068006840F001002168086006E000BFC3
:10068000002084F8200000BF4FF002084046BFE77A
:100690002DE9F8470346002294466EE14FF0010829
:1006A00008FA02F4D1F8008008EA0400A0427DD1E3
:1006B000DFF8DCA2D1F80480A8EB0A09D0453AD0D3
:1006C00014DCB8F1030F50D009DCB8F1000F31D0C1
:1006D000B8F1010F1CD0B8F1020F49D120E0B8F1F8
:1006E000110F18D0B8F1120F42D11EE0B9F5881FD2
:1006F00025D006DCB9F5803F20D0B9F5801F37D171
:100700001AE0B9F5001F18D0B9F5041F30D117E071
:10071000D1F80CC02DE0D1F80C8008F1040C28E0D1
:10072000D1F80C8008F1080C23E0D1F80C8008F116
:100730000C0C1EE000BF00BF00BF00BF00BF00BF29
:10074000D1F80880B8F1000F02D14FF0040C0BE093
:10075000D1F80880B8F1010F03D14FF0080C1C61EB
:1007600002E04FF0080C5C6103E04FF0000C00E089
:1007700000BF00BFFF2801D8984601E003F104083C
:100780004646FF2802D84FEA820803E0A2F1080893
:100790004FEA88084746D6F800804FF00F0909FA5B
:1007A00007F928EA09080CFA07F900E088E048EAA6
:1007B0000908C6F80080D1F8048008F08058B8F124
:1007C000805F7DD100BFDFF8CC81D8F8188048F079
:1007D0000108DFF8C091C9F81880C846D8F8188019
:1007E00008F00108CDF8008000BF00BF4FEAB9381B
:1007F0004FEA920958F829504FEA82784FEA18795F
:100800004FF00F0808FA09F825EA0805DFF8888193
:10081000434502D14FF0000816E0DFF880814345E0
:1008200002D14FF001080FE0DFF87481434502D197
:100830004FF0020808E0DFF86C81434502D14FF029
:10084000030801E04FF004084FEA82794FEA197972
:1008500008FA09F848EA0505DFF84C814FEA9209E1
:1008600048F82950D1F8048008F48018B8F5801FA2
:100870000AD1DFF83881D8F8008048EA0008DFF8AC
:100880002C91C9F8008009E0DFF82081D8F80080B9
:1008900028EA0008DFF81491C9F80080D1F8048034
:1008A00008F40018B8F5001F10D1DFF8008108F136
:1008B0000408D8F8008048EA0008DFF8F09000E06B
:1008C0005AE009F10409C9F800800DE0DFF8DC8086
:1008D00008F10408D8F8008028EA0008DFF8CC9076
:1008E00009F10409C9F80080D1F8048008F400383F
:1008F000B8F5003F0ED1DFF8B480A8F10408D8F8AD
:10090000008048EA0008DFF8A490A9F10409C9F8BA
:1009100000800DE0DFF89480A8F10408D8F800808A
:1009200028EA0008DFF88490A9F10409C9F80080DA
:10093000D1F8048008F48038B8F5803F0ED1DFF894
:100940006C80A8F10808D8F8008048EA0008DFF8B1
:100950005C90A9F10809C9F800800DE0DFF84C802F
:10096000A8F10808D8F8008028EA0008DFF83C90D1
:10097000A9F10809C9F80080521CD1F8008028FAB2
:1009800002F8B8F1000F7FF489AEBDE8F8870000E7
:10099000000011100010024000080140000C01404E
:1009A000001001400014014008000140080401400B
:1009B0000AB1016101E00B0403617047014800685E
:1009C00070470000180000200348006803490978B8
:1009D00008440149086070471800002020000020EA
:1009E00010B50848006840F0100006490860032070
:1009F00000F0A8F80F2000F007F800F02BF8002016
:100A000010BD00000020024070B504460E4800787A
:100A10004FF47A71B1FBF0F00C490968B1FBF0F5C5
:100A2000284600F0F9FB08B1012070BD102C07D258
:100A300000222146501E00F047F80548046001E0FE
:100A40000120F2E70020F0E7200000202400002031
:100A50001C00002008B500BF1148806940F001006B
:100A60000F4988610846806900F00100009000BFCE
:100A700000BF00BF0846C06940F08050C86108460A
:100A8000C06900F08050009000BF00BF00BF054962
:100A9000486820F0E06040F00070486000BF08BD8A
:100AA000001002400000014001460846002809DB12
:100AB00000F01F0301229A4043099B0003F1E02349
:100AC000C3F8002100BF70472DE9F05F80460D4656
:100AD0001646002702F02CF9074639462A463346C7
:100AE00001F00700C0F1070ABAF1040F02D94FF074
:100AF000040A01E0C0F1070AD14600F1040ABAF184
:100B0000070F02D24FF0000A01E0A0F1030AD44619
:100B10004FF0010A0AFA09FAAAF1010A0AEA020ADE
:100B20000AFA0CFA4FF0010B0BFA0CFBABF1010BBC
:100B30000BEA030B4AEA0B042146404602F000F997
:100B4000BDE8F09F00BF00F00702064B19684FF6A2
:100B5000FF031940044B0B4343EA0221014B196088
:100B600000BF70470CED00E00000FA0570B50446C8
:100B70000D460CB9012070BD5A48006800F007000E
:100B8000A8420ED25748006820F007002843554974
:100B900008600846006800F00700A84201D0012064
:100BA000E9E7207800F0020002281DD1207800F04B
:100BB0000400042805D14C48406840F4E0604A49EC
:100BC0004860207800F00800082805D146484068B1
:100BD00040F46050444948604348406820F0F000C9
:100BE000A168084340494860207800F0010078B3CC
:100BF0006068012806D13C48006800F4003090B9D4
:100C00000120B8E76068022806D13748006800F084
:100C1000007040B90120AEE73348006800F00200E0
:100C200008B90120A7E73048406820F00300616858
:100C300008432D494860FFF7C1FE064609E0FFF76B
:100C4000BDFE801B41F28831884202D9032092E721
:100C500007E02548406800F00C006168B0EB810FA8
:100C6000EDD12048006800F00700A8420ED91D48C9
:100C7000006820F0070028431A4908600846006809
:100C800000F00700A84201D0012074E7207800F0AE
:100C90000400042807D11448406820F4E060E168AB
:100CA000084311494860207800F00800082808D15E
:100CB0000D48406820F46050216940EAC1000A49AB
:100CC000486000F03FF808494968C1F30311074A3A
:100CD000515CC8400649086006480068FFF794FE6A
:100CE000002048E700200240001002402044000895
:100CF000240000201C00002001480068704700000C
:100D00002400002000B5FFF7F7FF04494968C1F34C
:100D10000221034A515CC84000BD0000001002409F
:100D20003044000800B5FFF7E7FF04494968C1F304
:100D3000C221034A515CC84000BD000000100240BF
:100D40003044000870B50021002200240023002058
:100D5000134D696801F00C05F5B1042D02D0082D82
:100D600019D101E00F4819E00F4DC1F38346AB5D87
:100D700001F4803555B10A4D6D68C5F340450B4E01
:100D8000725D084D5D43B5FBF2F402E0084D03FBD4
:100D900005F4204602E000BF024800BF00BF70BD5E
:100DA0000010024000127A000E4400081E440008A1
:100DB00000093D00F8B504460CB90120F8BD2078C3
:100DC00000F00100002878D0F848406800F00C00DE
:100DD00004280CD0F548406800F00C00082811D118
:100DE000F248406800F48030B0F5803F0AD1EF4807
:100DF000006800F4003000285FD0606800285CD1F3
:100E00000120DBE700BF6068B0F5803F06D1E7480E
:100E1000006840F48030E549086028E0606858B90F
:100E2000E248006820F48030E04908600846006825
:100E300020F4802008601AE06068B0F5A02F0BD184
:100E4000DA48006840F48020D84908600846006805
:100E500040F4803008600AE0D448006820F4803014
:100E6000D24908600846006820F48020086000BF6E
:100E7000606888B1FFF7A2FD054606E0FFF79EFD1A
:100E8000401B642801D9032098E7C848006800F493
:100E900000300028F2D010E0FFF790FD054606E094
:100EA000FFF78CFD401B642801D9032086E7BF486B
:100EB000006800F400300028F2D1207800F0020031
:100EC000022857D1B948406800F00C0050B1B7482B
:100ED000406800F00C00082818D1B448406800F4BD
:100EE000803098B9B148006800F0020020B1206954
:100EF000012801D0012061E7AC48006820F0F8002B
:100F0000616940EAC100A949086033E02069E8B19D
:100F10000120A7490860FFF751FD054606E0FFF7ED
:100F20004DFD401B022801D9032047E79F48006878
:100F300000F002000028F2D09C48006820F0F80081
:100F4000616940EAC1009949086013E000209849AE
:100F50000860FFF733FD054606E0FFF72FFD401B55
:100F6000022801D9032029E79048006800F0020018
:100F70000028F2D1207800F0080008282DD1A069BF
:100F8000B8B101208B490860FFF718FD054606E05F
:100F9000FFF714FD401B022801D903200EE7834808
:100FA000406A00F002000028F2D0012001F098FA17
:100FB00013E000207F490860FFF700FD054606E0CA
:100FC000FFF7FCFC401B022801D90320F6E6774816
:100FD000406A00F002000028F2D1207800F00400FE
:100FE000042873D100277148C06900F0805070B99F
:100FF00000BF6E48C06940F080506C49C861084627
:10100000C06900F08050009000BF00BF01276A480F
:10101000006800F48070B0B96748006840F48070E0
:1010200065490860FFF7CAFC054606E0FFF7C6FC05
:10103000401B642801D90320C0E65F48006800F423
:1010400080700028F2D000BFE068012806D1574820
:10105000006A40F001005549086227E0E06858B98D
:101060005248006A20F00100504908620846006AB0
:1010700020F00400086219E0E06805280BD14B4815
:10108000006A40F00400494908620846006A40F0DE
:10109000010008620AE04548006A20F00100434967
:1010A00008620846006A20F00400086200BFE06899
:1010B000A0B1FFF783FC054609E0FFF77FFC401B6A
:1010C00041F28831884202D9032077E622E037488E
:1010D000006A00F002000028EFD012E0FFF76EFC7B
:1010E000054608E0FFF76AFC401B41F28831884260
:1010F00001D9032062E62D48006A00F002000028B2
:10110000F0D1012F05D12948C06920F0805027492E
:10111000C86100BFE069C8B32448406800F00C0013
:10112000082860D0E069022848D1002020490866DC
:10113000FFF744FC054606E0FFF740FC401B022891
:1011400001D903203AE61948006800F00070002831
:10115000F2D1206AB0F5803F07D11448406820F4EE
:101160000030A168084311494860D4E908010843E8
:101170000E49496821F4741108430C494860012064
:101180000B490866FFF71AFC054607E03DE0FFF74C
:1011900015FC401B022801D903200FE60348006814
:1011A00000F000700028F2D02FE000000010024094
:1011B0000000424280044242007000400020144976
:1011C0000866FFF7FBFB054606E0FFF7F7FB401B51
:1011D000022801D90320F1E50E48006800F00070F4
:1011E0000028F2D111E0E069012800D1E6E50948C4
:1011F000466806F48031206A814204D106F47011F9
:10120000606A814201D00120D8E50020D6E50000C7
:10121000000042420010024070B504462546681E98
:10122000B0F1807F01D301200FE0681E4FF0E02174
:1012300048610F214FF0FF3001F082FD00204FF098
:10124000E021886107200861002070BD7047704769
:1012500010B50346002200BF93F83C00012801D1DD
:10126000022010BD012083F83C0000BF22F0FF00E7
:10127000CC6840EA040222F440708C6840EA040220
:1012800022F480604C6840EA040222F400600C689A
:1012900040EA040222F480500C6940EA040222F47D
:1012A00000504C6940EA040222F48040CC6940EAD4
:1012B00004021868426400BF002083F83C0000BFAD
:1012C00000BFCEE730B502460B4600BF92F83C00A7
:1012D000012801D1022030BD012082F83C0000BF6E
:1012E000022082F83D00106844681068816824F08C
:1012F00070041868044310684460104D1068A842D8
:101300000BD01068B0F1804F07D00D4D1068A84287
:1013100003D00C4D1068A84205D121F08001586817
:10132000014310688160012082F83D0000BF002069
:1013300082F83C0000BF00BFCDE70000002C014058
:10134000000400400008004010B504460CB901201C
:1013500010BD94F83D0028B9002084F83C002046D8
:1013600000F026F8022084F83D00211D206801F0DD
:101370000BF9012084F8460000BF84F83E000121EB
:101380003F200155402001554120015500BF00BFBD
:10139000012084F842004320015544200155452096
:1013A000015500BF012084F83D000020D0E7000077
:1013B00038B504460D492068884215D100BF0C4855
:1013C000C06940F002000A49C8610846C06900F0DF
:1013D0000200009000BF00BF002211461D20FFF751
:1013E00073FB1D20FFF760FB38BD000000040040C8
:1013F00000100240014691F83D00012801D0012073
:101400007047022081F83D000868C06840F0010084
:101410000B68D860124B086898420BD00868B0F18E
:10142000804F07D00F4B0868984203D00E4B0868D6
:1014300098420CD10868806800F00702062A0CD098
:101440000868006840F001000B68186005E0086853
:10145000006840F001000B6818600020D0E7000031
:10146000002C0140000400400008004001460868CC
:10147000C06820F001000A68D06000BF0868006AF8
:1014800041F21112104050B90868006A92101040E1
:1014900028B90868006820F001000A68106000BFE1
:1014A000012081F83D00002070472DE9F0410446FD
:1014B0000D46002700BF94F83C00012802D102200D
:1014C000BDE8F081012084F83C0000BF022084F8D0
:1014D0003D002068866826F0770626F47F4620685F
:1014E00086602868502833D00CDC202850D004DCDB
:1014F00000284BD0102851D149E0302849D040284D
:101500004CD139E060282DD0702807D0B0F5805F2D
:1015100003D0B0F5005F41D10DE041E0D5E9021301
:101520006A68206801F07BF82068866846F07706D4
:101530002068866034E0D5E902136A68206801F00B
:101540006EF82068806840F480402168886027E059
:10155000EA686968206801F033F95021206801F0D9
:1015600069F81DE0EA686968206801F03CF96021CB
:10157000206801F05FF813E0EA686968206801F00C
:101580001FF94021206801F055F809E000BF00BFB5
:1015900000BF2968206801F04DF801E0012700BF75
:1015A00000BF012084F83D0000BF002084F83C000B
:1015B00000BF384684E72DE9F04104460D4614B9D2
:1015C0000120BDE8F08194F83D0028B9002084F89E
:1015D0003C00204600F052F8022084F83D002068CC
:1015E000806844F20701884321688860211D2068D3
:1015F00000F0CAFF2068D0F808802068866920685B
:10160000076A286840EA080840F203308643A9695F
:10161000A86840EA0120064340F60C4086434FF29A
:10162000F0008643E969E86840EA0120064328693A
:101630000001296A40EA0130064327F02207696960
:10164000686840EA011007432068C0F808802068F5
:10165000866120680762012084F8460084F83E0015
:1016600001213F200155012084F84200432001550B
:10167000012084F83D000020A3E7000010B586B0EB
:101680000446002002900390049005902068B0F179
:10169000804F23D100BF1248C06940F001001049BB
:1016A000C8610846C06900F00100019000BF00BF9A
:1016B00000BF0846806940F00400886108468069E0
:1016C00000F00400019000BF00BF03200290002042
:1016D0000390049002A90348FEF7DAFF06B010BD9C
:1016E00000100240000801402DE9F04304460D4679
:1016F00094F83E603F20075D94F84280432010F844
:1017000004906DB9012E02D1B8F1010F02D0012071
:10171000BDE8F083022084F83E0084F8420025E012
:10172000042D0CD1012F02D1B9F1010F01D00120FC
:10173000EEE702213F2001554320015516E0012E1E
:1017400007D1012F05D1B8F1010F02D1B9F1010F75
:1017500001D00120DCE7022084F83E0002213F2076
:101760000155022084F842004320015515B1042D93
:101770000CD105E001220021206800F03FFF10E0BD
:1017800001220421206800F039FF0AE00122002133
:10179000206800F033FF01220421206800F02EFFB2
:1017A00000BF00BF2068006840F0010021680860A9
:1017B0000020ADE7704710B5044620680069C0F30B
:1017C0004000D8B12068C068C0F34000B0B16FF0ED
:1017D000020021680861012020772068806900F0FC
:1017E000030018B12046FFF7E5FF05E0204600F0B2
:1017F000D9F8204600F0A4F900202077206800697D
:10180000C0F38000D8B12068C068C0F38000B0B1D8
:101810006FF0040021680861022020772068806949
:1018200000F4407018B12046FFF7C4FF05E02046E1
:1018300000F0B8F8204600F083F9002020772068F7
:101840000069C0F3C000D8B12068C068C0F3C00010
:10185000B0B16FF00800216808610420207720688B
:10186000C06900F0030018B12046FFF7A3FF05E0B0
:10187000204600F097F8204600F062F9002020771B
:1018800020680069C0F30010D8B12068C068C0F3B8
:101890000010B0B16FF010002168086108202077B7
:1018A0002068C06900F4407018B12046FFF782FF3D
:1018B00005E0204600F076F8204600F041F90020CF
:1018C00020772068006900F0010058B12068C068E6
:1018D00000F0010030B16FF001002168086120467E
:1018E00000F09AF920680069C0F3C01058B1206870
:1018F000C068C0F3C01030B16FF08000216808618B
:101900002046FFF7A3FC20680069C0F3801058B19F
:101910002068C068C0F3801030B16FF040002168CB
:101920000861204600F0CCF920680069C0F340103F
:1019300058B12068C068C0F3401030B16FF020008B
:10194000216808612046FFF782FC10BD10B586B003
:101950000446002002900390049005900E492068F0
:10196000884217D100BF0D48806940F004000B4940
:1019700088610846806900F00400019000BF00BF44
:101980004FF4C060029002200390059002A9044821
:10199000FEF77EFE06B010BD002C01400010024094
:1019A0000008014070472DE9F04104460D461646F7
:1019B000002700BF94F83C00012802D10220BDE8B6
:1019C000F081012084F83C0000BF36B1042E1BD00A
:1019D000082E31D00C2E5ED145E02946206800F05B
:1019E00033FE2068806940F0080021688861206823
:1019F000806920F004002168886120688069296975
:101A000008432168886148E02946206800F04CFEC0
:101A10002068806940F400602168886120688069DE
:101A200020F480602168886120688069296940EA23
:101A300001202168886130E02946206800F068FEB6
:101A40002068C06940F008002168C8612068C0694A
:101A500020F004002168C8612068C0692969084332
:101A60002168C86119E02946206800F085FE2068D9
:101A7000C06940F400602168C8612068C06920F432
:101A800080602168C8612068C069296940EA012036
:101A90002168C86101E0012700BF00BF00BF00202E
:101AA00084F83C0000BF384689E710B504460CB9FD
:101AB000012010BD94F83D0028B9002084F83C00B6
:101AC000204600F025F8022084F83D00211D206802
:101AD00000F05AFD012084F8460000BF84F83E0063
:101AE00001213F200155402001554120015500BFF3
:101AF00000BF012084F842004320015544200155D5
:101B00004520015500BF012084F83D000020D0E7AA
:101B100008B5094A016891420DD100BF074989699A
:101B200041F40061054A91611146896901F400613F
:101B3000009100BF00BF08BD002C01400010024012
:101B40007047000070B504460D4615B994F83E0084
:101B50000BE0042D02D13F20005D06E0082D02D1EC
:101B60004020005D01E04120005D012801D00120FE
:101B700070BD1DB9022084F83E000EE0042D03D193
:101B800002213F20015508E0082D03D10221402009
:101B9000015502E002214120015501222946206819
:101BA00000F02CFD19492068884201D1012000E095
:101BB000002028B12068406C40F40040216848644F
:101BC0001249206888420BD02068B0F1804F07D0BE
:101BD0000F492068884203D00E49206888420CD102
:101BE0002068806800F00706062E0CD02068006888
:101BF00040F001002168086005E02068006840F0BE
:101C00000100216808600020B2E70000002C0140BC
:101C1000000400400008004070B504461E492068DA
:101C2000884237D11D491E4801F088FB1D480078C5
:101C3000022815D11C48007890B900221B49184889
:101C400001F092F81A4A19491A4801F04BFA06466F
:101C500002F002FA05461849284601F01EFA19E07A
:101C600010480078012815D10F48007890B901225A
:101C70000E490B4801F078F80D4A0C490F4801F065
:101C8000C1FA064602F0E8F905460B49284601F07C
:101C900004FA00BF70BD0000000400407000002086
:101CA000000000200800002009000020D0010020D2
:101CB00008020020F401002028000020E00100209C
:101CC0007047F8B504460E46174694F8420020289F
:101CD0002ED106B10FB90120F8BD012020630020EC
:101CE00060633A463146204600F084FF0546EDB970
:101CF000206B012819D100BF0020009020680068E7
:101D0000009020684068009000BF00BF00BF00BF87
:101D100021680C3151E8001F41F0100021680C319E
:101D200041E80002002AF3D100E001252846D3E76C
:101D30000220D1E770B505460C461E220849094825
:101D4000FFF7BFFF08480068006820F0040006495C
:101D50000968086005490C7001200549087070BDCC
:101D60002202002000010020480100201100002074
:101D700014000020704700002DE9F84F0446206849
:101D800005682068C668206847694FF00009CA46A0
:101D900005F00F09B9F1000F0AD105F0200038B1A4
:101DA00006F0200020B1204600F028FEBDE8F88FA4
:101DB000B9F1000F7BD007F0010018B906F490705C
:101DC000002874D005F0010030B106F4807018B11D
:101DD000606C40F00100606405F0040030B107F071
:101DE000010018B1606C40F00200606405F0020070
:101DF00030B107F0010018B1606C40F0040060647D
:101E000005F0080048B106F0200010B907F0010005
:101E100018B1606C40F008006064606C002845D028
:101E200005F0200028B106F0200010B1204600F097
:101E3000E5FD20684069C0F3801A606C00F008007E
:101E400010B9BAF1000F2CD0204600F07EFD2068BA
:101E5000406900F0400000B300BF00BF21681431AA
:101E600051E8001F21F040002168143141E80002D0
:101E7000002AF3D100BFE06B50B17748E16B4863B3
:101E8000E06BFEF75DFA88B1E06B416B88470DE0CF
:101E90002046FFF76FFF09E009E02046FFF76AFFE1
:101EA00004E02046FFF766FF002060647EE7206BB9
:101EB000012877D105F01000002873D006F010003B
:101EC0000028FAD000BF0020009020680068009031
:101ED00020684068009000BF00BF2068406900F0A3
:101EE000400000285FD0E06B006840681FFA80F86F
:101EF000B8F1000F55D0A08D404552DDA4F82E80DA
:101F0000E06B8069202843D000BF00BF21680C31FE
:101F100051E8001F21F4807021680C3141E8000273
:101F2000002AF3D100BF00BF00BF2168143151E87F
:101F3000001F21F001002168143141E80002002A4D
:101F4000F3D100BF00BF00BF2168143151E8001F6A
:101F500021F040002168143141E80002002AF3D149
:101F600000BF202084F842000020206300BF00BF93
:101F700021680C3151E8001F21F0100021680C315C
:101F800041E80002002AF3D100BFE06BFEF7ACF994
:101F900002206063A08DE28D801A81B22046FFF797
:101FA000C9FE03E742E0A08DE18D401A1FFA80F8D8
:101FB000E08DD0B3B8F1000F37D000BF00BF21686B
:101FC0000C3151E8001F21F4907021680C3141E878
:101FD0000002002AF3D100BF00BF00BF2168143106
:101FE00051E8001F21F001002168143141E800028E
:101FF000002AF3D100BF202084F842000020206393
:1020000000BF00BF21680C3151E8001F21F0100013
:1020100021680C3141E80002002AF3D100BF022000
:10202000606341462046FFF785FEBFE605F080006D
:1020300030B106F0800018B1204600F03FFEB5E652
:1020400005F0400030B106F0400018B1204600F025
:10205000B2FCABE600BFA9E60F28000810B50446A5
:102060000CB9012010BDA06900B100E000BF94F8D8
:10207000410028B9002084F84000204600F02AF8EA
:10208000242084F841002068C06820F400502168B2
:10209000C860204600F030FD2068006920F49040C0
:1020A000216808612068406920F02A0021684861A1
:1020B0002068C06840F400502168C8600020606457
:1020C000202084F8410084F842000020606300BFB3
:1020D000C8E7000010B586B00446002002900390C7
:1020E000049005903B492068884271D100BF3A486E
:1020F000806940F48040384988610846806900F46E
:102100008040019000BF00BF00BF0846806940F0DA
:10211000080088610846806900F00800019000BF4F
:1021200000BF40200290022003900320059002A9E6
:102130002A48FEF7ADFA8020029000200390049018
:1021400002A92648FEF7A4FA00BF2549486840F0D6
:10215000E06040F00400486000BF22482249086067
:10216000002048600021204881608021C16000215A
:10217000016141618161C161FEF708FA08B1FEF7B2
:10218000B0F800BF1848E063446200BF1548143837
:1021900016490860102048600021144881608021A1
:1021A000C1600021016141618161C161FEF7EEF909
:1021B00008B1FEF796F800BF0C48A063446200BF68
:1021C000002211462520FEF77FFC2520FEF76CFC3F
:1021D00006B010BD0038014000100240000C014064
:1021E0000000014058000240480100208C010020FE
:1021F00070477047704700BFFEE7000008B500BF9A
:102200000E48406940F001000C49486108464069A9
:1022100000F00100009000BF00BF002211460E2018
:10222000FEF752FC0E20FEF73FFC002211460F2065
:10223000FEF74AFC0F20FEF737FC08BD00100240F5
:1022400000B585B00020019002900390049000BF7B
:102250002448806940F0100022498861084680695E
:1022600000F01000009000BF00BF00BF084680696A
:1022700040F0200088610846806900F0200000904E
:1022800000BF00BF00BF0846806940F004008861BD
:102290000846806900F00400009000BF00BF00BF46
:1022A0000846806940F0080088610846806900F0AF
:1022B0000800009000BF00BF00224FF400510A4800
:1022C000FEF776FB4FF400500190012002900020B1
:1022D00003900220049001A90348FEF7D9F905B044
:1022E00000BD0000001002400010014000B591B098
:1022F00000200F9010901C2108A8FDF765FF2021F9
:102300006846FDF761FF27482749086040F27F20B3
:10231000486000212448816040F2E731C16000211B
:10232000016141618161FFF7C0FB08B1FDF7D9FF91
:1023300000200F9010900FA91B48FEF7C3FF08B1B3
:10234000FDF7CFFF60200890002009900A900B90C5
:102350000C900D900E90042208A91348FFF723FB60
:1023600008B1FDF7BEFF082208A90F48FFF71BFBC5
:1023700008B1FDF7B6FF0020009001900290039095
:1023800004904FF4005005900020079069460648DD
:10239000FEF75EFF08B1FDF7A4FF0348FFF7D6FA8A
:1023A00011B000BD002C01402800002000B58BB00A
:1023B000242102A8FDF708FF0020009001904FF0B3
:1023C000804019490860002048600021164881605B
:1023D0004FF6FF71C160002101618161012002900F
:1023E0000020039001200490002005900A20069010
:1023F0000020079001200890002009900A200A90F0
:1024000002A90948FFF7D7F808B1FDF76AFF0020D5
:102410000090019069460448FEF754FF08B1FDF7AB
:1024200060FF0BB000BD00007000002000B587B059
:1024300000200390049005900690019002901548AA
:102440001549086040F27F204860002112488160F1
:1024500040F2E731C160002101618161FEF774FF44
:1024600008B1FDF73EFF4FF48050039003A90A48DE
:10247000FFF71BF808B1FDF734FF00200190029030
:1024800001A90548FEF71EFF08B1FDF72AFF07B0B6
:1024900000BD000000040040B800002010B50B484B
:1024A0000B4908604FF4E130486000210848816022
:1024B000C16001610C21416100218161C161FFF7AF
:1024C000CDFD08B1FDF70DFF10BD00000038014043
:1024D0000001002000BFFEE700BFFEE770470000DC
:1024E00008B508490968C9084FF47A72B1FBF2F1DE
:1024F0004143009100BF00BF00994A1E009200298D
:10250000F9D108BD24000020704710B5FEF75CFA31
:1025100010BD00B58FB0282105A8FDF755FE142188
:102520006846FDF751FE0220059001200990102019
:102530000A9002200C9000210D914FF460110E9131
:1025400005A8FEF737FC08B1FDF7CBFE0F20009081
:1025500002200190002002904FF480600390002040
:10256000049002216846FEF701FB08B1FDF7B9FEB1
:102570000FB000BD7047000010B50248FFF71BF90F
:1025800010BD0000B800002010B50268184B98423A
:1025900008D0B0F1804F05D0164B984202D0164BB0
:1025A000984203D122F070024B681A43104B9842B4
:1025B00008D0B0F1804F05D00E4B984202D00E4BA0
:1025C000984203D122F44072CB681A4322F0800370
:1025D0004C6943EA040202608B68C3620B68836241
:1025E000034B984201D10B6903630123436110BD82
:1025F000002C0140000400400008004030B501F00C
:102600001F05012404FA05F3046A9C430462046A6A
:1026100001F01F0502FA05F52C43046230BD30B508
:102620000C46816821F47F4142EA03252543294372
:10263000816030BD0A46816821F0700142F00703D5
:10264000194381607047000030B5026A056A25F0C1
:10265000010505624368846924F0700424F00304D2
:102660000D682C4322F002028D682A430D4DA842CA
:1026700006D100BF22F00802CD682A4322F00402EE
:10268000084DA84207D123F4807323F400734D69E9
:102690002B438D692B43436084614D68456302621F
:1026A00030BD0000002C014030B5026A056A25F0FB
:1026B000100505624368846924F4E04424F44074FE
:1026C0000D6844EA052422F020028D6842EA0512D2
:1026D0000E4DA84207D100BF22F08002CD6842EA29
:1026E000051222F04002094DA84209D123F480636B
:1026F00023F400634D6943EA85038D6943EA85034A
:10270000436084614D688563026230BD002C0140E6
:1027100030B5026A056A25F4807505624368C469AC
:1027200024F0700424F003040D682C4322F400729A
:102730008D6842EA05220F4DA84207D100BF22F45E
:102740000062CD6842EA052222F48062094DA84267
:1027500009D123F4805323F400534D6943EA051350
:102760008D6943EA05134360C4614D68C563026225
:1027700030BD0000002C014030B5036A056A25F425
:10278000805505624468C26922F4E04222F4407236
:102790000D6842EA052223F400538D6843EA0533AD
:1027A000064DA84204D124F480444D6944EA8514BE
:1027B0004460C2614D680564036230BD002C014075
:1027C00030B50B461446026A056A25F0010505621C
:1027D000816921F0F00141EA041122F00A021A4352
:1027E0008161026230BD30B50B461446026A056A4B
:1027F00025F010050562816921F4704141EA043138
:1028000022F0A00242EA03128161026230BD70B57B
:1028100005466C6A0020E085E0842046FFF7AAFAAE
:1028200070BD70B506460025746A20684069C0F323
:10283000C01594F84100212805D125B10020E0847D
:10284000204600F0C8F820684069C0F3801594F86D
:102850004200222805D125B10020E085204600F065
:1028600074F8606C40F0100060642046FFF782FA54
:1028700070BD70B505466C6A2868006800F02000DD
:10288000002842D1E08500BF00BF21680C3151E82B
:10289000001F21F4807021680C3141E80002002AF9
:1028A000F3D100BF00BF00BF2168143151E8001F01
:1028B00021F001002168143141E80002002AF3D11F
:1028C00000BF00BF00BF2168143151E8001F21F094
:1028D00040002168143141E80002002AF3D100BF12
:1028E000202084F84200206B01280ED100BF00BFD9
:1028F00021680C3151E8001F21F0100021680C31D3
:1029000041E80002002AF3D100BF00206063206B81
:10291000012804D1A18D2046FFF70CFA02E02046E1
:10292000FFF766FC70BD70B505466C6A01206063F8
:10293000206B012805D1A08D41082046FFF7FAF948
:1029400002E02046FFF755FC70BD00BF00BF0268E3
:102950000C3252E8002F22F4907102680C3242E8E7
:102960000013002BF3D100BF00BF00BF0268143278
:1029700052E8002F22F001010268143242E80013ED
:10298000002BF3D100BF016B01290ED100BF00BFA6
:1029900002680C3252E8002F22F0100102680C325B
:1029A00042E80013002BF3D100BF202180F8421031
:1029B00000210163704710B504462068C06820F00C
:1029C00040002168C860202084F841002046FFF7BD
:1029D00011FC002010BD00BF00BF02680C3252E89D
:1029E000002F22F0C00102680C3242E80013002BD5
:1029F000F3D100BF202180F841107047F8B504469C
:102A000094F84200222875D1A068B0F5805F0CD1FF
:102A1000206950B90025A66A20684068C0F3080004
:102A20003080A06A801CA06215E0A56A0026A0681C
:102A3000B0F5805F03D0A06828B9206918B9206874
:102A40004068287004E02068406800F07F0028702B
:102A5000A06A401CA062E08D401E80B2E085002884
:102A600046D12068C06820F020002168C860206836
:102A7000C06820F480702168C8602068406920F038
:102A8000010021684861202084F842000020606332
:102A9000206B012826D10020206300BF00BF2168E1
:102AA0000C3151E8001F21F0100021680C3141E881
:102AB0000002002AF3D100BF2068006800F0100077
:102AC00010280AD100BF0020009020680068009004
:102AD00020684068009000BF00BFA18D2046FFF72E
:102AE00029F902E02046FFF783FB0020F8BD01E052
:102AF0000020FBE70220F9E770B504462168096968
:102B000021F44051E2681143226811612269A168F1
:102B10001143626941EA02052168C96841F20C6209
:102B2000914329432268D1602168496921F44071A9
:102B3000A2691143226851612D4A2168914202D154
:102B4000FEF7F0F801E0FEF7DDF800EBC00101EB65
:102B5000001162689200B1FBF2F100EBC00202EBDF
:102B6000001263689B00B2FBF3F26423B2FBF3F242
:102B700002EBC20303EB0212A1EB8201322202EB51
:102B800001116422B1FBF2F101F0F00100EBC0028F
:102B900002EB001263689B00B2FBF3F26423B2FB0A
:102BA000F3F201EB021200EBC00101EB00116368CC
:102BB0009B00B1FBF3F100EBC00303EB001366686D
:102BC000B600B3FBF6F36426B3FBF6F303EBC306E0
:102BD00006EB0313A1EB8301322303EB0111642302
:102BE000B1FBF3F101F00F0111442268916070BD57
:102BF0000038014077B581B0044615460298A062BE
:102C0000A58500206064222084F842002848E16BFA
:102C100088622848E16BC8622748E16B086300209E
:102C2000E16B486302AE32682368191D2B46E06BE6
:102C3000FDF7E0FC00BF00200090206800680090D5
:102C400020684068009000BF00BF206970B100BFDD
:102C500000BF21680C3151E8001F41F480702168E9
:102C60000C3141E80002002AF3D100BF00BF00BFD1
:102C70002168143151E8001F41F00100216814312E
:102C800041E80002002AF3D100BF00BF00BF216865
:102C9000143151E8001F41F040002168143141E82F
:102CA0000002002AF3D100BF002004B070BD000074
:102CB000732800082729000823280008014691F8F6
:102CC0004100212828D18868B0F5805F0BD10869C0
:102CD00048B90A6A1088C0F308000B685860086A8F
:102CE000801C086205E00B6A581C086218780B68A3
:102CF0005860C88C401E80B2C88458B90868C06843
:102D000020F080000B68D8600868C06840F0400080
:102D10000B68D860002070470220FCE710B502481D
:102D2000FFF72AF810BD00000001002000BFFEE7F9
:102D300002480068C0F30220704700000CED00E07C
:102D400010B5002804DB0A07130E054A135406E0E9
:102D50000A07140E034A00F00F031B1FD45410BDC2
:102D600000E400E018ED00E02DE9F84F0446894644
:102D70009246BAF1010F15D1B4F9000001F088F9BB
:102D80001049009001F0D0F9834601F009F8074698
:102D90000D4A0E4B00F052FC054600F069FBC9F8E5
:102DA00000000CE0606801F073F90646084901F084
:102DB000BBF90546074901F08DF8C9F80400BDE8E4
:102DC000F88F00000000704215AE47E17AD45340FE
:102DD0000000B44300E0F7450246D0B280EA21206B
:102DE000034B33F8100080EA012080B270470000E6
:102DF000384400082DE9F04F85B006460F461546C9
:102E000099460020049082460390344680468346CB
:102E100002900DE00298305C552806D10120049004
:102E20000298401C00F0FF0A06E00298401C029045
:102E3000387802998842EDDC00BF54440498012898
:102E400061D10020029012E00298205CAA280BD1E8
:102E50000298204410F8010C7D2805D0029800F05B
:102E6000FF0A0120039006E00298401C0290387887
:102E700002998842E8DC00BF0398012840D104EBA6
:102E80000A0010F8020C02901FE020787D2811D172
:102E900020784146FFF7A0FF8046601C044600787A
:102EA00080F0200005F8010B20784146FFF794FFE1
:102EB000804607E020784146FFF78EFF8046207865
:102EC00005F8010B641C0BF1010B2178029881427B
:102ED000DBD108F0FF0001904FEA28200090217814
:102EE0000198814203D161780098814204D04FF06B
:102EF000FF3005B0BDE8F08FA9F800B00020F8E77A
:102F00004FF0FF30F5E74FF0FF30F2E700210160AE
:102F100081604160704770B505460C464FF07E51A8
:102F2000204601F0CDF902D24FF07E5405E0002199
:102F3000204601F0C5F800D200242C6070BD2DE9B8
:102F4000F04104460D464FF07E50216801F0EAF949
:102F50008046616801F0E8F806462946206801F0DD
:102F6000E3F80746314600F047FFA060A0686060C4
:102F7000A068BDE8F08170B504460D460020606091
:102F8000608020803C212846FEF7AEFB00202968A7
:102F9000486270BD86B0FDF723FDFFF7BAFAFFF770
:102FA0004FF9FFF72BF9FFF7A1F9FFF7FFF9FFF74B
:102FB0003DFAFFF773FA1E221D491E48FEF781FEF7
:102FC0001D480068006820F004001B49096808607B
:102FD0001A491B48FFF7CFFF1A491B4800F04CF86D
:102FE0001A48FFF793FF1A491848FFF794FF1DE0AE
:102FF00018480078012819D1174B184A18490C486D
:10300000FFF7F8FE174908700C48174A174BCDE92F
:103010000132CDE903100A48154B164A0A490090BF
:103020000E4800F09FF900200A490870E0E7000010
:103030002202002000010020480100207000002032
:103040000000002028000020D001002008020020FD
:103050009A99193E1400002012000020400200201E
:1030600011000020150000200900002008000020A9
:10307000F4010020E001002070B504460D46002058
:1030800060602060E060A06004212846FEF75AFDE1
:1030900008212846FEF756FD70BD00280BDD0022F2
:1030A0000B689A630A68D26A6423B2FBF3F2424364
:1030B0000B68DA6314E000280CDA0A68D26A642329
:1030C000B2FBF3F243425A430B689A6300220B6847
:1030D000DA6305E020B900220B689A630B68DA63B3
:1030E000704700002DE9F04F8BB004468946D9F8AF
:1030F0000410D9F80C0001F015F98246504600F092
:103100004FFE0746394A3A4B00F02CFCCDE9060148
:10311000E06800F045FE0546DDE9062300F0DAF937
:10312000CDE9080100F0A4F9E060D9F80C0000F046
:1031300037FE304A304BCDE9080100F013FC05465C
:103140000E46504600F02CFE07462A46334600F055
:10315000CDFB01D20020E0605046216901F0E2F889
:10316000019000F01DFE0746204A214B00F066FA50
:1031700005460E46A06800F013FE2A463346CDE908
:10318000020100F0EFFBCDE90601E168606800F0A4
:10319000CBFF06465146206800F0C6FF0746314681
:1031A00000F02AFE054600F0FBFDCDE90401DDE953
:1031B000062300F08FF9CDE9080100F059F98346A4
:1031C000C4F810A00D49584601F07AF802D2DFF891
:1031D0002CB006E00A49584600F072FF01D2DFF831
:1031E00020B058460BB0BDE8F08F00007B14AE470E
:1031F000E17A843FFCA9F1D24D62503F0000B44215
:103200000000B4C22DE9F04F8DB004460D46914642
:1032100048462968FFF793FE83462968A86801F0AD
:1032200081F80646C5F800B0304600F0B9FD384ACE
:10323000384BCDE9060100F095FBCDE90801E068C7
:1032400000F0AEFD0746DDE9082300F043F9CDE9C3
:103250000A0100F00DF9E0602F48A96800F064FF52
:103260000746314601F02CF801D20020E0603046DC
:10327000216901F057F8019000F092FD0746244AB9
:10328000244B00F0DBF9CDE90401A06800F088FDD3
:10329000CDE90201DDE9042300F064FBCDE908017A
:1032A000E168606800F040FF80463146206800F029
:1032B0003BFF4146059000F09FFD074600F070FD82
:1032C000CDE90601DDE9082300F004F9CDE90A01A2
:1032D00000F0CEF882462661504600F061FD0746B8
:1032E00000220E4B00F03CFC02D2DFF834A00AE0D2
:1032F000504600F055FD074600220A4B00F0F6FA52
:1033000001D2DFF824A050460DB0BDE8F08F0000D8
:103310007B14AE47E17A843F0AD7A33B0080564036
:103320000000B442008056C00000B4C210B5016075
:10333000836042600024C460046110BD0A68526A60
:103340004388D21A12B202800A68526A12B24280CC
:10335000B0F9003042681A44426070470020401CB7
:10336000704700002DE9F05F04460D4616461F46E3
:10337000DDE90B8ADDF828900D9890F90000401CDB
:1033800010B9FFF7EBFF6DE094F800B0BBF1070F49
:1033900035D009DCBBF1010F0DD0BBF1030F27D0F5
:1033A000BBF1050F5BD11CE0BBF1090F2ED0BBF1C7
:1033B000150F54D135E098F80000012808D154F8D1
:1033C000010F306060687060A068641EB06007E044
:1033D00054F8010F386060687860A068641EB860B7
:1033E0003EE0022088F80000D4F80100E86037E0F1
:1033F000012088F80000D4F80100A86030E0002027
:103400008AF800001848FDF7F5FF29E001208AF846
:10341000000016490020FFF740FE1348FEF726F88B
:103420001EE000231A4619463846FFF77FFF0023A7
:103430001A4619463046FFF779FF00210E980068BA
:1034400041620020C9F80400A9F80200A9F80000B0
:1034500068602860E860A86088F8000000E000BFAD
:1034600000BF00BFBDE8F09FB8000020280000208A
:1034700021F00042A2F16052B2F5801F01F000433A
:1034800028BFD2F17F6C0BD95FEA001C43EAC2026D
:1034900042EB507018BF704728BF20F00100704702
:1034A000B2F5801FBCBF184670474FEA410C1CF5AF
:1034B000001F02D2084600F0FEBE70B500F0FCFA14
:1034C00000000089FFF7F6BF4FF00040A0F5800034
:1034D0007047000010B591EA030F48BF83F0004326
:1034E00000F17C83841A71EB030C05D2121943EBB3
:1034F0000C03001B61EB0C01DFF824E14FEA1154CF
:10350000A4EB135C1EEA430F18BF9EEA445F73D01E
:1035100023EA0E03DCF1200E21EA045143F4801368
:1035200032D322FA0CFE10EB0E0023FA0CFE41EB14
:103530000E01CCF1200E03FA0EFE10EB0E0051F13D
:103540000001B1F5801FCCF1200E32D201EB045105
:1035500012FA0EF2BDE8104058BF7047401C38BF49
:103560005FEA420218BF7047002814BF20F0010034
:1035700041F100014FEA410313F5001F38BF7047C6
:10358000A1F1C04100F0E6BA012A43EB0302ACF11D
:10359000200CDCF11F0E32BF4FF0000E23FA0CF3AB
:1035A00010EB030041EB0451B4EB115FD0D0A1EB61
:1035B000045101F5801149085FEA300001EB045124
:1035C0000ED350F1000038BF12FA0EFE08D1BDE84C
:1035D0001040C9E7401C38BF5FEA4202CAD1C3E7C6
:1035E000BDE810404FEA410313F5001F38BF704794
:1035F000A1F1C04100F0AEBA9EEA445F08D011EAE2
:103600005E0FBDE8104004BF01F00041002070478C
:10361000BDE8104070B500F04FFA00BF64FBBE3E3D
:103620000000E0FF491058BFC1F140415B1058BF96
:10363000C3F140438B42EFF3008070472DE9C04156
:1036400030B4DFF8A0C23CEA111418BF3CEA1314EE
:1036500000F0EC8081EA03051CEA111444EAD574F9
:1036600018BF1CEA131500F0C780A4EB05044FF047
:10367000004545EAC12145EAC32341EA505143EAE6
:10368000525304F17F74994204F500344FEAC0208C
:103690004FEAC22208BF904200F09C804FEA1365B7
:1036A0000FF24016765D4FEA134506FB05F7C7F1AA
:1036B000807706FB07F74FEAD737A7FB0368764208
:1036C000C8F58038A7FB06CE38BFA8F1010807FB74
:1036D00008E64FF0000EA6FB028CE6FB03CEDCF101
:1036E000000CCEF1004E38BFAEF1010EA6FB0C5817
:1036F0004FF000074FF00005E6FB0E87A1FB08C660
:10370000A0FB07CE16EB0E0645F10005E1FB0765B1
:1037100015F1E04E7EBFA4F580345FEA46066D41A8
:1037200016F1800745F100054FEA17274FEA0666B4
:1037300047EA0567A6F1DE46B6F1805F4FEA152538
:103740001FD9384624F0010C05EBC471BCF1FE6FA3
:1037500001EB0C1102D8F0BCBDE8008124425CBF33
:1037600001F5801E9EEAC47F02D4F0BCBDE8008152
:10377000244238D4F0BCA1F1C041BDE8004100F0C2
:10378000E9B94FEAD22242EA43524FEAD323A7FBD8
:1037900002864FEAD02040EA415007FB03661EEA4A
:1037A0000E0F4FEAD12105FB026658BFA6EB00566B
:1037B000B6EB00564FEA520E4EEAC37E18EB0E0EE1
:1037C00056EB530EBDD518EB02085E417F1C55F138
:1037D0000005B6E74FF480154FF000074FF00006E4
:1037E0004FF00008ADE7F0BC4FF0000001F1C04120
:1037F00001F00041BDE8008111EA0C1F0CEA13152D
:1038000000D00CE013EA0C1F00F025804FF0000000
:10381000F0BC81EA030101F00041BDE80081F0BC89
:10382000BDE8004181EA030100F094B9F0BCBDE8B5
:10383000004170B500F040F9097EFC3E00F007B889
:1038400081EA03014FF0000001F00041704781EA76
:10385000030100F07FB9F0BCBDE800414FF000006B
:1038600021497047FFFDFBF9F7F5F4F2F0EEEDEBBF
:10387000E9E8E6E4E3E1E0DEDDDBDAD8D7D5D4D36E
:10388000D1D0CFCDCCCBCAC8C7C6C5C4C2C1C0BFBA
:10389000BEBDBCBBBAB9B8B7B6B5B4B3B2B1B0AFC0
:1038A000AEADACABAAA9A8A8A7A6A5A4A3A3A2A1A4
:1038B000A09F9F9E9D9C9C9B9A999998979796955F
:1038C00095949393929191908F8F8E8E8D8C8C8BFB
:1038D0008B8A898988888787868585848483838283
:1038E000828181800000FF070000F87F51EA030C0D
:1038F00017D41CF5801F58BFBCF5801F00F106804F
:10390000994218BF704708BF9042704707D711F51A
:10391000801F58BF13F5801F19D499427047894200
:1039200070471CF5801F08D5BCF5801FF7D58B426A
:1039300018BF704708BF824270474FF4001C1CEB51
:10394000410F38BF1CEB430F01D28B42704770B55B
:1039500000F0B2F8922449004FF000514FF080532C
:10396000FFF760BEDFF848C170B51CEA111E1EBF2C
:103970001CEA13159EEA0C0F95EA0C0F00F06F80FD
:1039800081EA030423EA4C134EEAD47E21EA4C1167
:1039900041F4801143F48013AE44A1FB024CA0FB20
:1039A0000365AEF17F7E361955EB0C05A1FB034C88
:1039B0004CF10003A0FB021C16EB0C06654153F111
:1039C0000003094218BF46F0010613F4007F0BD133
:1039D0004FEA03314FEA0530340341EA155140EA1A
:1039E00016506FF003020AE04FEAC3214FEAC520E8
:1039F000F40241EA555140EA56506FF0020202EBE0
:103A00002E4201EB025585EACE710AD05FEA440CE2
:103A100018BF24F0004450F1000041F1000120EAF9
:103A2000D47040F2FE7C624500D270BDA84214BF43
:103A30004FF080444FF04044002E08BF0024BEF1F8
:103A4000806FA8BFA1F1C041BDE8704080F28280C4
:103A50004FF0000001F1C04101F0004170479EEAC3
:103A60000C0F0CEA131518BF95EA0C0F06D04FF097
:103A7000000081EA030E0EF0004170BD00F01CF85A
:103A80008900013E00F007B800F009B84FEA430C86
:103A90005FEA5C5C08D081EA030100F05BB84FEAA2
:103AA000410C5FEA5C5CF6D14FF0000001497047C1
:103AB0000000FF070000F87F0EF1020E2EF0030E4B
:103AC0005EF8046B364205D4012A43EB030515F575
:103AD000001F12D8012841EB010C1CF5001F0CD867
:103AE0000ED14FEAD17C15F5001F0CEB4C0C0CF1FC
:103AF000020C08BF4CEBD37C04E04FF0080C01E053
:103B00004FEAD37C0CEB4C0526FA05F606F00706C7
:103B1000B6F1040C06D20EEB860CBDE870404CF0FA
:103B2000010C6047DFE80CF0090B02024FF0004186
:103B30004FF00000A1F5002170BD19461046012884
:103B400051EB010418BFD4F5001484BF002001F02C
:103B5000004170BD0808A0F500114FEA310170471F
:103B600053EA010C17D41CF5801F58BFBCF5801F09
:103B700000F106808B4218BF704708BF8242704731
:103B800007D713F5801F58BF11F5801F19D48B423A
:103B900070479B4270471CF5801F08D5BCF5801FFD
:103BA000F7D5994218BF704708BF904270474FF44D
:103BB000001C1CEB430F38BF1CEB410F01D2994294
:103BC00070470FB40CBC03BCFFF7C1BE10B591EA3F
:103BD000030F48BF83F000433FF584AC841A71EBB8
:103BE000030C07D212198CF0004C43EB0C03001BA2
:103BF00061EB0C01DFF8A4E14FEA1154A4EB135C74
:103C00001EEA430F18BF9EEA445F00F0B08023EA2B
:103C10006E03524221EA0451C3EB6E0338BF5B1EB0
:103C2000DCF1200E25D322FA0CFE10EB0E0043FA35
:103C30000CFE41EB0E01CCF1200E03FA0EFE10EB50
:103C40000E0051F10001CCF1200E29D412FA0EF22F
:103C500001EB0451BDE8104058BF7047401C1CBF29
:103C6000B2F1004F704700280CBF491C20F0010042
:103C7000704712EB020E43EB030218BF4FF0010E28
:103C80004EEA4202ACF1200CDCF11E0E54D943FA8C
:103C90000CFE10EB0E0051F1FF31CCF11E0ED5D50C
:103CA0000EF1010E12FA0EFE404141EB010101EB53
:103CB000445C5FEA5C5C10D910EBDE7001EB0451F0
:103CC00038BFBEF1004FBDE8104018BF7047002854
:103CD0000CBF491C20F00100704730D24FEAD42CB1
:103CE00011F5001124F400641BD0B1FA81F20B3AF3
:103CF000A41AA41ED2F12003914030FA03F3194311
:103D0000904001EBCC71002C01EB0451BDE8104058
:103D1000A8BF704701F1C0414FF0000001F0004121
:103D20007047B0FA80F310FA03F100D110BDE41A25
:103D3000173C4805C90AE4E701EB045110BD4910DE
:103D400001EB0451BDE810404FEA300002E04FF0B3
:103D5000000170474A0008BF0042F8D0B2F5001FCA
:103D600028BF704701F000414FF0000070479EEA05
:103D7000445F07D011EA5E0FBDE8104004BF002188
:103D800000207047BDE8104070B5FFF795FE00BFFA
:103D900040DFF63E83F00041104670470000E0FF30
:103DA00043004FEAD30C4FEA3C0C43401FBF40078F
:103DB0000CF1605113F0FE4F70471CF0006F03D1FF
:103DC00000200CF0004170470CF0004343EA5070B3
:103DD00010B540EACC0000F028FA00BF00000092C5
:103DE0004FEA0001FFF7B6BE4FF000414FF0000070
:103DF000A1F500217047000090EA010F48BF81F053
:103E0000004100F19682421A3CBF801A89184FEA9D
:103E1000D0524FF07F4C1CEA410FA2EBD15318BF98
:103E20009CEA026F00F03B804FF0004C4CEA00200F
:103E30004CEA012121FA03FC10EB0C0C1ED202F11A
:103E4000FF325FEA1C2040EBC25038BF70471CF0C5
:103E50007F0F4FEA400C18BFBCF17F4F38BF70474F
:103E6000C3F12003994008BF20F00100BCF17F4F4F
:103E700038BF7047A0F1C04000F01DBA4FEA3C00C7
:103E8000000A40EBC25028BF1CF0FF0F4FEA400C65
:103E9000E6D018BFBCF17F4F38BF7047EAE79CEA15
:103EA000026F05D010EA5C0F08BF00F000407047B9
:103EB00010B500F0BAF900BF64FBBE3E401058BF19
:103EC000C0F14040491058BFC1F140418142EFF379
:103ED000008070474FF47F0C1CEAD0121EBF1CEA12
:103EE000D11392EA0C0F93EA0C0F00F0858090EA50
:103EF000010F48BF42F4807240F4000C41F400000E
:103F00002CF07F4120F07F4000B58142A2EB0302FC
:103F10000FF2081CACEB504EC0F100009EF800E020
:103F20004FEA4E0E00FB0EFC38BF49004FEA2C1C36
:103F300002F5FA020CFB0EF34FEACE1E4FEA112CEB
:103F40004FEAC1210EEB635E42EB22420EFB0CFCFA
:103F50004FEA1C5300FB03114FEA112C4FEA0131C9
:103F60000EFB0CFC4FEADC4C00FB0C11C14228BFDD
:103F700009184CEB03335DF804EB10EB410143EB04
:103F8000C250B2F57C0F38BF704729D512F0F00F40
:103F90001CBF00F1C04000F00040704700818283E8
:103FA0008485868788898B8C8D8E8F919293959648
:103FB00097999A9C9D9FA0A2A3A5A7A8AAACAEB0D2
:103FC000B2B3B5B7B9BCBEC0C2C5C7C9CCCED1D4D7
:103FD000D7D9DCDFE2E6E9ECF0F3F7FAFE00000007
:103FE0004FEA400C0CF1807CBCF17E4F28BF70473B
:103FF000B0F1C04000F05FB990EA010F0CEAD113B4
:1040000048BF42F48072624538BF634507D213F45B
:104010007F0F16D080EA010000F00040704710B515
:1040200000F003F9097EFC3E00F005B880EA0100CB
:1040300000F00040704780EA010000F0004000F00E
:104040003AB912F47F0F04BF0248704780EA0100BA
:1040500000F031B90000C07F41000B0ED3F19E0289
:1040600008D950F400034FEA032323FA02F048BFB3
:104070004042704710B500F0D8F800BF4992248044
:10408000002070476FF0004282EA20007047000075
:1040900010F0004148BF4042B0FA80F310FA03F23A
:1040A000C3F19D030BD051EAC35101EB122053061B
:1040B00038BF704700F1010008BF20F001007047D1
:1040C00050EA010C00F113801CF5000F58BFBCF53D
:1040D000000F01D48842704707D710F5000F58BF72
:1040E00011F5000F15D488427047894270471CF5BE
:1040F000000F04D5BCF5000FF7D5814270474FF093
:10410000807C1CEB400F38BF1CEB410F01D2814279
:10411000704710B500F089F8922449004FF0005024
:104120004FF08051FFF7CABE4FF47F0C1CEAD0124B
:104130001EBF1CEAD11392EA0C0F93EA0C0F00F099
:10414000478090EA010F48BF42F480724FF0004C64
:104150004CEA00204CEA012102EB0302A0FB011310
:10416000A2F50002002918BF43F001035B0028BF3D
:104170004FEA330342EB22425FEA132C4CEBC2506E
:104180002EBFBCEB436FB2F57C0F70474FEA036C58
:10419000BCF1004F08BF20F00100B2F57C0F38BF22
:1041A00070470BD582F0FF0212F5803FC8BF704701
:1041B00000F1C040D8BF00F00040704700F5000C8F
:1041C0005FEA4C0C48BF7047B0F1C04000F073B8D4
:1041D00090EA010F0CEAD11348BF42F480726245A5
:1041E00038BF634504D280EA010000F00040704708
:1041F00010B500F01AF800BF8900013E00F007B8C2
:1042000000F009B85FEA410C5FEA1C6C08D080EA54
:10421000010000F050B85FEA400C5FEA1C6CF6D178
:104220004FF00040A0F5800070470EF1020E2EF016
:10423000030E5EF8044B244204D44FEA4102B2F16B
:104240007F4F11D84FEA4003B3F17F4F0CD80ED106
:104250004FEAD07CB2F17F4F0CEB4C0C0CF1020C0E
:1042600008BF4CEBD17C04E04FF0080C01E04FEAB2
:10427000D17C0CEB4C0324FA03F404F00704B4F1F2
:10428000040C06D20EEB840CBDE810404CF0010C7F
:104290006047DFE80CF0070802024FF00040A0F58D
:1042A000800010BD0846420018BFD2F1807288BF5E
:1042B00000F0004010BDFF2141EAD050C00570471A
:1042C00051EA000C00F113801CF5000F58BFBCF53B
:1042D000000F01D48142704707D711F5000F58BF76
:1042E00010F5000F15D481427047894270471CF5C4
:1042F000000F04D5BCF5000FF7D5884270474FF08A
:10430000807C1CEB410F38BF1CEB400F01D2884270
:10431000704780EA010081EA000180EA0100FFF7AE
:10432000F8BE000090EA010F48BF81F000413FF560
:104330006AAD421A04D882F00042A0EB0200114498
:104340004FEAD0524FF07F4C1CEA410FA2EBD15301
:1043500018BF9CEA026F4AD04FF0004C4CEA002094
:104360004CEA012121FA03FCB0EB0C0C0FD412F043
:10437000FE0F36D05FEA4C001DD5001240EBC25054
:1043800038BF70471CF03F0F18BF70470BE0A2F119
:1043900001025FEA1C2040EBC25038BF70471CF09E
:1043A0007F0F18BF7047C3F12003994014BF401E10
:1043B00020F00100704780084FEA122308BF7047C1
:1043C000B0FA80FCA2EB0C02CCF1280C60FA0CF0E5
:1043D00093EA122F04BF00EBC25070474FEAC3703C
:1043E0007047130A5FEADC1008BF7047F6E79CEAE3
:1043F000026F04D010EA5C0F08BF0020704710B5B0
:10440000FFF713FF40DFF63E81F0004070470203E4
:104410000405060708090A0B0C0D0E0F1010010207
:104420000000000000000000010203040607080964
:10443000000000000102030400002110422063304C
:104440008440A550C660E770088129914AA16BB1EC
:104450008CC1ADD1CEE1EFF1311210027332522294
:10446000B5529442F772D662399318837BB35AA33C
:10447000BDD39CC3FFF3DEE3622443342004011464
:10448000E664C774A44485546AA54BB5288509958C
:10449000EEE5CFF5ACC58DD5533672261116300634
:1044A000D776F6669556B4465BB77AA719973887DC
:1044B000DFF7FEE79DD7BCC7C448E5588668A778F4
:1044C0004008611802282338CCC9EDD98EE9AFF92C
:1044D000488969990AA92BB9F55AD44AB77A966AD4
:1044E000711A500A333A122AFDDBDCCBBFFB9EEB7C
:1044F000799B588B3BBB1AABA66C877CE44CC55CA4
:10450000222C033C600C411CAEED8FFDECCDCDDDCB
:104510002AAD0BBD688D499D977EB66ED55EF44E73
:10452000133E322E511E700E9FFFBEEFDDDFFCCF1B
:104530001BBF3AAF599F788F8891A981CAB1EBA16F
:104540000CD12DC14EF16FE18010A100C230E320EB
:104550000450254046706760B9839893FBA3DAB393
:104560003DC31CD37FE35EF3B1029012F322D2323B
:104570003542145277625672EAB5CBA5A895898563
:104580006EF54FE52CD50DC5E234C324A01481048B
:104590006674476424540544DBA7FAB79987B89733
:1045A0005FE77EF71DC73CD7D326F2369106B016DB
:1045B00057667676154634564CD96DC90EF92FE9F3
:1045C000C899E9898AB9ABA944586548067827682B
:1045D000C018E1088238A3287DCB5CDB3FEB1EFBD3
:1045E000F98BD89BBBAB9ABB754A545A376A167A7B
:1045F000F10AD01AB32A923A2EFD0FED6CDD4DCDA3
:10460000AABD8BADE89DC98D267C076C645C454CCA
:10461000A23C832CE01CC10C1FEF3EFF5DCF7CDF72
:104620009BAFBABFD98FF89F176E367E554E745E1A
:10463000932EB23ED10EF01E584600080000002016
:1046400028000000280100088046000828000020FB
:10465000880800004401000800000000000000007D
:104660000001000000000000000000000000000049
:104670000000000010000000010000000024F40011
:04000005080000ED02
:00000001FF
