:020000040800F2
:100000008007002089010008971400089F1200084B
:10001000951400088F020008431700080000000034
:100020000000000000000000000000009B14000819
:100030009102000800000000991400089D140008B7
:10004000A3010008A3010008A3010008A301000800
:10005000A3010008A3010008A3010008A3010008F0
:10006000A3010008A3010008A3010008A3010008E0
:10007000A3010008A3010008A3010008A3010008D0
:10008000A3010008A3010008A3010008A3010008C0
:10009000A3010008A3010008A3010008A3010008B0
:1000A000A3010008A3010008A3010008A3010008A0
:1000B000A301000801150008A3010008A30100081E
:1000C000A3010008A3010008A3010008A301000880
:1000D000A3010008A3010008A3010008A301000870
:1000E000A3010008A3010008A301000800F002F822
:1000F00000F03AF80AA090E8000C82448344AAF188
:100100000107DA4501D100F02FF8AFF2090EBAE885
:100110000F0013F0010F18BFFB1A43F0010318473B
:100120001C2700003C270000103A24BF78C878C183
:10013000FAD8520724BF30C830C144BF04680C60ED
:10014000704700000023002400250026103A28BF35
:1001500078C1FBD8520728BF30C148BF0B60704739
:100160001FB51FBD10B510BD00F058F81146FFF7C0
:10017000F7FF01F03FFB00F076F803B4FFF7F2FF62
:1001800003BC00F07DF8000009488047094800479B
:10019000FEE7FEE7FEE7FEE7FEE7FEE7FEE7FEE737
:1001A000FEE7FEE704480549054A064B7047000094
:1001B000FD140008ED0000088001002080070020E9
:1001C00080030020800300204FF0000200B513469A
:1001D00094469646203922BFA0E80C50A0E80C5067
:1001E000B1F12001BFF4F7AF090728BFA0E80C5018
:1001F00048BF0CC05DF804EB890028BF40F8042B11
:1002000008BF704748BF20F8022B11F0804F18BF7D
:1002100000F8012B7047704770477047754600F033
:100220002BF8AE4605006946534620F00700854688
:1002300018B020B5FFF7B6FFBDE820404FF000062C
:100240004FF000074FF000084FF0000B21F00701BE
:10025000AC46ACE8C009ACE8C009ACE8C009ACE801
:10026000C0098D46704710B50446AFF300802046A4
:10027000BDE81040FFF781BF004870472001002013
:1002800001491820ABBEFEE7260002007047FEE7DA
:10029000704700002DE9F84FDFF8B8910024A9F16C
:1002A000040B23460F2709F1040AABF1040EC9E041
:1002B0000125A5402A40AA427DD1674ED1F804C04D
:1002C000ACEB0608B44532D014DCBCF1030F3AD0D5
:1002D00009DCBCF1000F2AD0BCF1010F1CD0BCF12D
:1002E000020F31D11DE0BCF1110F17D0BCF1120F7C
:1002F0002AD119E0B8F5881F19D006DCB8F5803F7F
:1003000015D0B8F5801F1FD111E0B8F5001F0ED031
:10031000B8F5041F18D10AE0CB6815E0CB681B1DA7
:1003200012E0CB6808330FE0CB680C330CE08B682D
:100330002BB1012B4FF0080303D0456104E00423E7
:1003400002E0056100E00023FF2A01D8064601E033
:1003500000F104064FEA840501D9A5F12005D6F87D
:10036000008007FA05FC28EA0C0803FA05F548EABC
:100370000508C6F800804D68ED0062D5374DAE69BE
:1003800046F00106AE61AD6924F0030605F00105F3
:100390000095334D06EB050CDCF80850A607360F28
:1003A00007FA06F825EA0805DFF8B880404503D1CA
:1003B0004FF0000817E044E0DFF8AC80404502D180
:1003C0004FF001080FE0DFF8A480404502D14FF064
:1003D000020808E0DFF89880404502D14FF003089A
:1003E00001E04FF0040808FA06F848EA0508CCF8DE
:1003F00008804D68D9F80060ED024D4601D51643DE
:1004000000E096432E604D68DAF80060AD02554674
:1004100001D5164300E096432E604D68DBF800607E
:10042000AD035D4601D5164300E096432E604D684E
:10043000DEF80060ED03754601D5164300E09643F3
:100440002E60641C0D682A46E5407FF431AFBDE89C
:10045000F88F000008040140000011100010024055
:100460000000014000080140000C01400010014064
:1004700000140140C26821EA02030A4043EA024133
:10048000016170470AB1016170470904FBE7000090
:100490000148806870470000080000200248816819
:1004A000027811448160704708000020074810B5A9
:1004B000016841F010010160032000F075F80F2081
:1004C00000F006F800F024F8002010BD00200240E3
:1004D00070B50D4D04464FF47A712878B1FBF0F0F9
:1004E0000A490968B1FBF0F000F0BCFA48B9102CD9
:1004F00007D200222146501E00F036F800206C6022
:1005000070BD012070BD0000080000201400002014
:100510000C4808B5816941F001018161816901F0F0
:1005200001010091C16941F08051C161C06900F0D1
:10053000805000900448416821F0E06141F0007172
:10054000416008BD0010024000000140002809DBA6
:1005500000F01F02012191404009800000F1E020DD
:10056000C0F8001170470000F0B40E4B1B680C4639
:10057000C3F30223C3F10705042D00D90425191D77
:10058000072901D2002300E0DB1E012606FA05F14F
:10059000491E214099409E40761E16403143F0BCD2
:1005A00001F0D0B80CED00E0064900F00702086841
:1005B0004FF6FF03184040EA0220034A1043086048
:1005C000704700000CED00E00000FA052DE9F0474F
:1005D0000F46050061D0434E306800F00700B84276
:1005E00009D2306820F0070038433060306800F0EE
:1005F0000700B84251D128683B4C810712D540070B
:1006000003D5606840F4E06060602878000703D597
:10061000606840F4605060606068A96820F0F00095
:10062000084360602878C00728D06868012810D087
:100630002168022810D0890700292EDA616821F08C
:10064000030101436160FFF723FF804641F28839CF
:100650000DE021688903EFE78901EDE7FFF718FF57
:10066000A0EB0801494502D90320BDE8F087606886
:10067000696800F00C00B0EB810FEFD1306800F03A
:100680000700B8420BD9306820F0070038433060CB
:10069000306800F00700B84201D00120E5E7287873
:1006A000400705D56068E96820F4E06008436060B1
:1006B0002878000706D56068296920F4605040EA70
:1006C000C100606000F018F86168084AC1F30311C6
:1006D000515CC8400649086006480068FFF7F8FE0C
:1006E0000020C2E700200240001002402C28000831
:1006F000140000200C0000200E4A51680E4801F042
:100700000C03042B11D0082B0FD10C48C1F38343E9
:10071000C903C05C0AD55168084AC1F34041921E22
:10072000515C054A5043B0FBF1F07047044948431F
:10073000704700000010024000127A001C280008D8
:1007400000093D002DE9F84F040070D02078C04D1D
:10075000C00749D06868C0F38100012807D06868E5
:10076000C0F38100022809D16868C00306D5286853
:10077000800339D560680028E7D035E06068B0F5BF
:10078000803F0BD010B1B0F5A02F11D0286820F415
:1007900080302860286820F4802002E0286840F437
:1007A00080302860606890B1FFF772FE06460AE06C
:1007B000286840F480202860F0E700BFFFF768FE5B
:1007C000801B642873D828688003F7D50CE0FFF7F6
:1007D0005FFE064605E000BFFFF75AFE801B642857
:1007E000F0D828688003F7D420789A4E80074FF01D
:1007F00001094FF0000839D5686810F00C0F07D0D8
:100800006868C0F38100022809D16868C00306D473
:100810002868800714D52069012808D110E02069D4
:10082000B0B1C6F80090FFF733FE074605E00AE1D5
:10083000FFF72EFEC01B0228C4D828688007F7D512
:100840002868616920F0F80040EAC10028600DE0E6
:10085000C6F80080FFF71CFE074604E0FFF718FE0D
:10086000C01B022823D828688007F7D42078000707
:100870002CD57948A169D9B1C0F80090FFF708FEDE
:10088000074604E0FFF704FEC01B02280FD8686A81
:100890008007F7D571484FF4FA510068B0FBF1F0CA
:1008A000009000BF0098411E0091FAD20EE080E057
:1008B000C0F80080FFF7ECFD074604E0FFF7E8FD15
:1008C000C01B022875D8686A8007F7D420784007D3
:1008D00060D5E8690027C00008D4E86940F080507E
:1008E000E861E869012700F0805000905C480168E9
:1008F000C90513D40168834641F480710160FFF794
:10090000C7FD824606E000BFFFF7C2FDA0EB0A006C
:1009100064284ED8DBF80000C005F5D5E068012852
:100920000AD008B1052813D0286A20F001002862F7
:10093000286A20F0040002E0286A40F001002862E2
:10094000E06841F2883B98B1FFF7A2FD82460BE0D8
:10095000286A40F004002862EEE700BFFFF798FD28
:10096000A0EB0A0159455AD8286A8007F6D50CE051
:10097000FFF78EFD824605E0FFF78AFDA0EB0A0136
:1009800059454CD8286A8007F6D41FB1E86920F091
:100990008050E861E06988B36968C1F38101022988
:1009A00044D00228C6F8608004D0FFF771FD0446E9
:1009B00038E034E0FFF76CFD074604E0FFF768FD20
:1009C000C01B02282BD828688001F7D4206AB0F514
:1009D000803F05D16868A16820F400300843686052
:1009E000D4E908010843696821F474110843686078
:1009F000C6F86090FFF74CFD044606E025E000BF16
:100A0000FFF746FD001B022809D828688001F7D5AA
:100A10001BE000BFFFF73CFD001B022802D90320AA
:100A2000BDE8F88F28688001F4D40EE00128F7D0E3
:100A30006868226A00F48031914204D1616A00F44E
:100A40007010884201D00120EAE70020E8E70000AA
:100A50000010024000004242800442421400002084
:100A60000070004010B5401EB0F1807F01D301201E
:100A700010BD4FF0E02460610F21601700F062FEAE
:100A80000020A06107202061002010BD7047704742
:100A900010B590F83C20012A22D0012280F83C2099
:100AA000CA688C6822F4407222434C6822F4806247
:100AB00022430C6822F4006222430C6922F4805223
:100AC00022434C6922F400522243C969002322F4D4
:100AD00080420A4301684A6480F83C30002010BD1F
:100AE000022010BD70B590F83C20012A26D00124C8
:100AF00080F83C40022280F83D2003685A689D68D7
:100B000022F070060A6832435A600D4B02689A421E
:100B100008D0B2F1804F05D00A4B9A4202D00A4B5E
:100B20009A4204D1496825F080031943916080F806
:100B30003D40002180F83C10084670BD022070BD89
:100B4000002C0140000400400008004010B50400E3
:100B500003D094F83D0010B107E0012010BD002043
:100B600084F83C00204600F01FF8022084F83D0085
:100B7000211D206800F0CAFC012084F8460084F89A
:100B80003E0084F83F0084F8400084F8410084F877
:100B9000420084F8430084F8440084F8450084F857
:100BA0003D00002010BD000008B500680B498842D8
:100BB00012D10B48C16941F00201C161C069002234
:100BC00000F00200009011461D20FFF7CDFCBDE8AB
:100BD00008401D20FFF7BABC08BD0000000400401B
:100BE0000010024090F83D10012901D0012070470B
:100BF000022180F83D100168CA6842F00102CA6013
:100C000000680B49884208D0B0F1804F05D00949EF
:100C1000884202D00849884204D1816801F0070166
:100C2000062903D0016841F00101016000207047EE
:100C3000002C0140000400400008004070B504464C
:100C400090F83C000025012817D0012684F83C606C
:100C5000022084F83D002068826822F0770222F4A6
:100C60007F4282600868502838D00DDC20284FD0A1
:100C700005DC90B3102811D14AE0022070BD302865
:100C800046D040280AD13BE060282FD070280DD0F4
:100C9000B0F5805F03D0B0F5005F12D0012584F875
:100CA0003D60002084F83C00284670BDCB68D1E947
:100CB0000121206800F06DFC2068816841F0770117
:100CC00009E0CB68D1E90121206800F062FC2068CE
:100CD000816841F480418160E1E719E0CA684968B0
:100CE000206800F00BFD5021206806E0CA684968C2
:100CF000206800F014FD6021206800F054FCCEE76D
:100D0000CA684968206800F0F9FC40212068F4E7CF
:100D1000226801461046F0E72DE9F0410D46040037
:100D200003D094F83D0018B108E00120BDE8F0813F
:100D3000002084F83C00204600F040F8022084F8AF
:100D40003D002068816844F2070291438160211DC3
:100D5000206800F0DBFB226890689169166A2B68B6
:100D6000AF69034340F20330814341EA0721A86899
:100D7000EF6908434FF6FC418843E96840EA0720E1
:100D8000014328692F6A000140EA07300843696877
:100D90006D6926F0220646EA05152943936022680C
:100DA000906154F8460B0162012004F81F09E075B8
:100DB0002076E0762077A0750020B7E700B585B0F3
:100DC000002100910191029103910068B0F1804FE0
:100DD00016D10C48C16941F00101C161C16901F03E
:100DE00001010491816941F00401816180696946D2
:100DF00000F004000490032000900348FFF74AFA33
:100E000005B000BD001002400008014070B590F828
:100E10003E60044690F83F5090F8423090F84320EE
:100E2000022021B104290ED0012E1BD114E0012E85
:100E300018D1012B16D184F83E0084F8420001221B
:100E40000021206820E0012D0CD1012A0AD184F86C
:100E50003F0084F8430014E0012D03D1012B01D1A0
:100E6000012A01D0012070BD84F83E0084F83F00C3
:100E700084F8420084F8430001220021206800F039
:100E80007BFB01220421206800F076FB20680168CA
:100E900041F001010160002070BD704770B504464B
:100EA000006801694FF00005C943890715D4C1687E
:100EB000C943890711D4E91E016101202077206808
:100EC00080698007204602D0FFF7E7FF04E000F0CA
:100ED000BFF8204600F064F9257720680169C9430E
:100EE000490717D4C168C943490713D46FF00401F7
:100EF0000161022020772068806910F4407F20463D
:100F000002D0FFF7CAFF04E000F0A2F8204600F08C
:100F100047F9257720680169C943090716D4C168D4
:100F2000C943090712D46FF008010161042020773A
:100F30002068C0698007204602D0FFF7AEFF04E0BA
:100F400000F086F8204600F02BF92577206801692B
:100F5000C943C90617D4C168C943C90613D46FF081
:100F600010010161082020772068C06910F4407FDB
:100F7000204602D0FFF791FF04E000F069F8204618
:100F800000F00EF9257720680169C943C90708D127
:100F9000C168C943C90704D1891E0161204600F018
:100FA0004FF920680169C943090609D4C168C943DA
:100FB000090605D46FF0800101612046FFF766FD48
:100FC00020680169C943490609D4C168C943490673
:100FD00005D46FF040010161204600F05FF9206800
:100FE0000169C94389060BD4C168C943890607D47E
:100FF0006FF0200101612046BDE87040FFF747BD5A
:1010000070BD000000B585B00021009101910291F2
:10101000039100680B49884212D10B48816941F065
:10102000040181618069694600F0040004904FF476
:10103000C06000900220019003900448FFF72AF955
:1010400005B000BD002C0140001002400008014026
:10105000704770B5044690F83C0000260D46012804
:101060000FD0012084F83C006AB1042A1DD0082A60
:101070002FD00C2A3FD00126002084F83C003046B7
:1010800070BD022070BD206800F096FA206881696A
:1010900041F0080181612068816921F004018161CA
:1010A000206881692A69114311E0206800F0ACFAD8
:1010B0002068816941F4006181612068816921F4BF
:1010C00080618161206881692A6941EA0221816128
:1010D000D2E7206800F0C4FA2068C16941F0080135
:1010E000C1612068C16921F00401C1612068C16942
:1010F0002A69114311E0206800F0DEFA2068C16916
:1011000041F40061C1612068C16921F48061C1615D
:101110002068C1692A6941EA0221C161ACE710B5C2
:10112000040003D094F83D0010B107E0012010BD89
:10113000002084F83C00204600F01EF8022084F8CD
:101140003D00211D206800F0E1F9012084F84600EF
:1011500084F83E0084F83F0084F8400084F84100A1
:1011600084F8420084F8430084F8440084F8450081
:1011700084F83D00002010BD08B50068064988428B
:1011800008D10648816941F400618161806900F4F9
:101190000060009008BD0000002C014000100240DB
:1011A0007047000010B50446022249B104290ED050
:1011B000082913D094F84100012816D0012010BD51
:1011C00094F83E000128F9D184F83E200FE094F80D
:1011D0003F000128F2D184F83F2008E094F8400055
:1011E0000128EBD184F8402001E084F8412001225D
:1011F000206800F0C1F90F492068884203D1426C91
:1012000042F4004242642068884208D0B0F1804F26
:1012100005D00949884202D00849884204D1816832
:1012200001F00701062903D0016841F001010160C6
:10123000002010BD002C01400004004000080040C8
:1012400010B50068114988421ED11149114800F0BB
:10125000AFFB0F49002290310E4800F083FA0C4A90
:10126000B432A2F1240101F1100000F02BFB01F0D7
:101270005FF90749483900F00AFBBDE810404FF418
:1012800000510548FFF7F6B810BD0000000400400B
:101290006000002000000020001001407047FEE7C1
:1012A00070B586B000241848009401940294039409
:1012B000816941F010018161816901F0100104919F
:1012C000816941F020018161816901F0200104916F
:1012D000816941F00401816180690C4E00F00400D5
:1012E0004FF400550490002229463046FFF7CAF813
:1012F00001200095CDE901040220039069463046A3
:10130000FEF7C8FF06B070BD00100240001001409B
:1013100010B592B000240F941C2168461094FEF77B
:1013200053FF202107A8FEF74FFF254823490160FE
:1013300040F27F21C0E9011440F2CF71C0E90314EB
:1013400044618461FFF7EBFE08B172B6FEE70F94CB
:101350000FA91B481094FFF7C5FB08B172B6FEE752
:101360006020CDE9000402940394049405940422BF
:10137000694613480694FFF76CFE08B172B6FEE7A3
:10138000082269460E48FFF764FE08B172B6FEE710
:101390000794089409944FF400500A94CDE90B4047
:1013A00007A907480E94FFF773FB08B172B6FEE772
:1013B0000348FFF727FE12B010BD0000002C0140CB
:1013C0001800002010B58CB024216846FEF7FCFE02
:1013D0000024154809944FF080410A94C0E9001494
:1013E0004FF6FF71C0E90241046184610120CDE93B
:1013F0000004CDE902040A210491CDE90540CDE9BC
:10140000074169460848FFF787FC08B172B6FEE756
:10141000099409A904480A94FFF764FB002801D045
:1014200072B6FEE70CB010BD6000002010B586B0AB
:1014300000241748009401940294039404941349DF
:101440000594016040F27F21C0E9011440F2E731C8
:10145000C0E903148461FFF779FB08B172B6FEE7B7
:101460004FF48050009069460948FFF7E7FB08B148
:1014700072B6FEE7049404A905480594FFF732FB11
:10148000002801D072B6FEE706B010BD000400408F
:10149000A8000020FEE7FEE770477047FEF7FEBF9A
:1014A00030B58FB028216846FEF78EFE14210AA8B9
:1014B000FEF78AFE02250120049000951020059079
:1014C00000244FF46010CDE9084007956846FFF707
:1014D00039F908B172B6FEE70F20CDE90A054FF4DD
:1014E0008060CDE90C4002210AA80E94FFF76EF847
:1014F000002801D072B6FEE70FB030BD7047000083
:101500000148FFF7CBBC0000A8000020F0B502683E
:10151000164B174C174D4FF08047984205D0B842F4
:1015200003D0A04201D0A84203D122F070064A683D
:101530003243984205D0B84203D0A04201D0A8421D
:1015400003D122F44074CA6822434C6922F080021D
:10155000224302608A68C2620A688262984201D1AC
:101560000969016301214161F0BD0000002C0140C7
:10157000000400400008004010B501F01F030121E5
:10158000046A99408C430462016A9A4011430162E3
:1015900010BD10B5846842EA032224F47F440A4354
:1015A0002243826010BD826822F070020A4342F03A
:1015B000070181607047000030B5036A026A22F0BB
:1015C000010202624268846924F073050C682C43AE
:1015D00023F002058B682B430A4DA8420BD123F060
:1015E0000805CB6822F440722B434D6923F00403B5
:1015F00015438A692A4342608461496841630362F2
:1016000030BD0000002C014030B5026A036A23F0AF
:1016100010030362436884690D6824F4E64444EAD5
:1016200005248D6822F0200242EA05120B4DA842E3
:101630000ED1CD6822F0800242EA05124D6923F4F2
:10164000406343EA85038D6922F0400243EA850343
:101650004360846149688163026230BD002C0140AF
:1016600030B5036A026A22F4807202624268C46979
:1016700023F4007324F073050C682C438D6843EA4F
:1016800005230C4DA8420ED1CD6823F4006343EA34
:1016900005234D6922F4405242EA05128D6923F474
:1016A000806342EA05124260C4614968C163036213
:1016B00030BD0000002C014030B5046A026A22F4FB
:1016C000805202624268C3690D6823F4E64343EA2C
:1016D00005238D6824F4005444EA0534064DA842DD
:1016E00004D14D6922F4804242EA85124260C3610E
:1016F00049680164046230BD002C014010B5036AE2
:10170000046A24F001040462846924F0F00444EAC9
:10171000021423F00A020A438461026210BD10B56C
:10172000036A046A24F010040462846923F0A003AD
:1017300024F4704444EA023243EA011182610162F6
:1017400010BDFEE70907090E002804DB00F1E020C8
:1017500080F80014704700F00F0000F1E02080F8DE
:10176000141D704710B50C46012A0AD0406800F0DD
:10177000FBFE0C4900F010FF0B4900F017FE606003
:1017800010BDB0F9000000F0EFFE084900F004FFC2
:1017900000F07EFD064A074B00F0FEF900F016F956
:1017A000206010BD0000B44300E0F7450000704227
:1017B00015AE47E17AD45340002101608160416059
:1017C00070474FF07E52914201DD114603E011F166
:1017D000FF4F00D300210160704770B500244460C2
:1017E0000D46448004803C212846FFF70FFB286803
:1017F000446270BDFEF75AFEFFF752FEFFF750FD40
:10180000FFF786FDFFF7DEFDFFF710FE11491248D6
:10181000FFF7E3FF0F49483901F1D80000F026F83F
:101820000C48B430FFF7C8FF0A480C49B430FFF742
:10183000C8FF08484830FFF7D5F906480023084A92
:101840000849A03000F0AEF8024907489031C8605E
:10185000FEE7000060000020000000209A99193E79
:101860000AD7233C0000A0410000484210B50022E6
:10187000426002600C46C260826004212046FFF78D
:1018800091FC2046BDE810400821FFF78BBC30B525
:10189000642400230A68002808DDD56AB5FBF4F447
:1018A00004FB00F494630868C36330BD9363FADA01
:1018B0000968CA6AC0F10000B2FBF4F202FB00F250
:1018C000CA6330BD2DE9F05F0E4604462F4F4968CC
:1018D000F06800F02DFF824600F0DAFC89460546EC
:1018E000BB463A462A4B00F0EBFA07468846E068CA
:1018F00000F0CEFC3A46434600F09AF800F066F855
:10190000E060F06800F0C4FC224A234B00F0D8FAF3
:1019100002460B462846494600F096FA01D20020BE
:10192000E0605046216900F003FF00F0B1FC5A4628
:10193000174B00F031F906460D46A06800F0A8FCF0
:1019400032462B4600F0BCFA06460D46E168606858
:1019500000F022FE07465146206800F01DFE394681
:1019600000F0C2FC00F094FC32462B4600F060F818
:1019700000F02CF80949C4F810A0884202DC08499C
:10198000884200D90846BDE8F09F00007B14AE47AE
:10199000E17A843FFCA9F1D24D62503F0000B4428D
:1019A0000000B4C280E80E000021C16001617047F0
:1019B0000A68526A4388D21A12B202800968496AD8
:1019C00041804168114441607047000021F00042AD
:1019D000A2F16052B2F5801F01F0004328BFD2F19E
:1019E0007F6C0BD95FEA001C43EAC20242EB5070E5
:1019F00018BF704728BF20F001007047B2F5801F64
:101A0000BCBF184670474FEA410C1CF5001F02D2BC
:101A1000084600F088BE70B500F0FCFA00000089AE
:101A2000FFF7F6BF4FF00040A0F5800070470000C0
:101A300010B591EA030F48BF83F0004300F14683DD
:101A4000841A71EB030C05D2121943EB0C03001B33
:101A500061EB0C01DFF824E14FEA1154A4EB135CB5
:101A60001EEA430F18BF9EEA445F73D023EA0E03B9
:101A7000DCF1200E21EA045143F4801332D322FA20
:101A80000CFE10EB0E0023FA0CFE41EB0E01CCF124
:101A9000200E03FA0EFE10EB0E0051F10001B1F51D
:101AA000801FCCF1200E32D201EB045112FA0EF25B
:101AB000BDE8104058BF7047401C38BF5FEA420283
:101AC00018BF7047002814BF20F0010041F1000149
:101AD0004FEA410313F5001F38BF7047A1F1C04121
:101AE00000F0E6BA012A43EB0302ACF1200CDCF172
:101AF0001F0E32BF4FF0000E23FA0CF310EB030061
:101B000041EB0451B4EB115FD0D0A1EB045101F5CE
:101B1000801149085FEA300001EB04510ED350F107
:101B2000000038BF12FA0EFE08D1BDE81040C9E728
:101B3000401C38BF5FEA4202CAD1C3E7BDE810408B
:101B40004FEA410313F5001F38BF7047A1F1C041B0
:101B500000F0AEBA9EEA445F08D011EA5E0FBDE81D
:101B6000104004BF01F0004100207047BDE8104064
:101B700070B500F04FFA00BF64FBBE3E0000E0FF0E
:101B8000491058BFC1F140415B1058BFC3F14043F9
:101B90008B42EFF3008070472DE9C04130B4DFF88D
:101BA000A0C23CEA111418BF3CEA131400F0EC8008
:101BB00081EA03051CEA111444EAD57418BF1CEA33
:101BC000131500F0C780A4EB05044FF0004545EA6B
:101BD000C12145EAC32341EA505143EA525304F17B
:101BE0007F74994204F500344FEAC0204FEAC222C4
:101BF00008BF904200F09C804FEA13650FF2401638
:101C0000765D4FEA134506FB05F7C7F1807706FBC3
:101C100007F74FEAD737A7FB03687642C8F5803845
:101C2000A7FB06CE38BFA8F1010807FB08E64FF076
:101C3000000EA6FB028CE6FB03CEDCF1000CCEF11D
:101C4000004E38BFAEF1010EA6FB0C584FF0000756
:101C50004FF00005E6FB0E87A1FB08C6A0FB07CEF0
:101C600016EB0E0645F10005E1FB076515F1E04EA8
:101C70007EBFA4F580345FEA46066D4116F1800709
:101C800045F100054FEA17274FEA066647EA056760
:101C9000A6F1DE46B6F1805F4FEA15251FD938461A
:101CA00024F0010C05EBC471BCF1FE6F01EB0C11CB
:101CB00002D8F0BCBDE8008124425CBF01F5801E63
:101CC0009EEAC47F02D4F0BCBDE80081244238D42F
:101CD000F0BCA1F1C041BDE8004100F0E9B94FEA14
:101CE000D22242EA43524FEAD323A7FB02864FEAAD
:101CF000D02040EA415007FB03661EEA0E0F4FEA70
:101D0000D12105FB026658BFA6EB0056B6EB005684
:101D10004FEA520E4EEAC37E18EB0E0E56EB530EF0
:101D2000BDD518EB02085E417F1C55F10005B6E7F2
:101D30004FF480154FF000074FF000064FF00008F9
:101D4000ADE7F0BC4FF0000001F1C04101F00041EF
:101D5000BDE8008111EA0C1F0CEA131500D00CE05D
:101D600013EA0C1F00F025804FF00000F0BC81EA60
:101D7000030101F00041BDE80081F0BCBDE8004175
:101D800081EA030100F094B9F0BCBDE8004170B5F0
:101D900000F040F9097EFC3E00F007B881EA03013B
:101DA0004FF0000001F00041704781EA030100F0AC
:101DB0007FB9F0BCBDE800414FF0000021497047F9
:101DC000FFFDFBF9F7F5F4F2F0EEEDEBE9E8E6E400
:101DD000E3E1E0DEDDDBDAD8D7D5D4D3D1D0CFCD87
:101DE000CCCBCAC8C7C6C5C4C2C1C0BFBEBDBCBBC0
:101DF000BAB9B8B7B6B5B4B3B2B1B0AFAEADACABBB
:101E0000AAA9A8A8A7A6A5A4A3A3A2A1A09F9F9E94
:101E10009D9C9C9B9A999998979796959594939346
:101E2000929191908F8F8E8E8D8C8C8B8B8A8989DD
:101E30008888878786858584848383828281818060
:101E40000000FF070000F87F51EA030C17D41CF5CF
:101E5000801F58BFBCF5801F00F10680994218BF53
:101E6000704708BF9042704707D711F5801F58BFD1
:101E700013F5801F19D499427047894270471CF5A9
:101E8000801F08D5BCF5801FF7D58B4218BF70475F
:101E900008BF824270474FF4001C1CEB410F38BF53
:101EA0001CEB430F01D28B42704770B500F0B2F8C3
:101EB000922449004FF000514FF08053FFF760BE6D
:101EC000DFF848C170B51CEA111E1EBF1CEA1315CD
:101ED0009EEA0C0F95EA0C0F00F06F8081EA030474
:101EE00023EA4C134EEAD47E21EA4C1141F48011CE
:101EF00043F48013AE44A1FB024CA0FB0365AEF19A
:101F00007F7E361955EB0C05A1FB034C4CF1000309
:101F1000A0FB021C16EB0C06654153F100030942BD
:101F200018BF46F0010613F4007F0BD14FEA0331CE
:101F30004FEA0530340341EA155140EA16506FF07C
:101F400003020AE04FEAC3214FEAC520F40241EA46
:101F5000555140EA56506FF0020202EB2E4201EB5F
:101F6000025585EACE710AD05FEA440C18BF24F00E
:101F7000004450F1000041F1000120EAD47040F229
:101F8000FE7C624500D270BDA84214BF4FF0804471
:101F90004FF04044002E08BF0024BEF1806FA8BF60
:101FA000A1F1C041BDE8704080F282804FF0000096
:101FB00001F1C04101F0004170479EEA0C0F0CEAAC
:101FC000131518BF95EA0C0F06D04FF0000081EAF8
:101FD000030E0EF0004170BD00F01CF88900013EB8
:101FE00000F007B800F009B84FEA430C5FEA5C5C08
:101FF00008D081EA030100F05BB84FEA410C5FEAC8
:102000005C5CF6D14FF00000014970470000FF070B
:102010000000F87F0EF1020E2EF0030E5EF8046B46
:10202000364205D4012A43EB030515F5001F12D8EB
:10203000012841EB010C1CF5001F0CD80ED14FEA12
:10204000D17C15F5001F0CEB4C0C0CF1020C08BFF9
:102050004CEBD37C04E04FF0080C01E04FEAD37C5A
:102060000CEB4C0526FA05F606F00706B6F1040C53
:1020700006D20EEB860CBDE870404CF0010C6047B8
:10208000DFE80CF0090B02024FF000414FF00000B6
:10209000A1F5002170BD19461046012851EB01043D
:1020A00018BFD4F5001484BF002001F0004170BDBA
:1020B0000808A0F500114FEA3101704710B591EA08
:1020C000030F48BF83F000433FF5BAAC841A71EBAD
:1020D000030C07D212198CF0004C43EB0C03001BCD
:1020E00061EB0C01DFF8A4E14FEA1154A4EB135C9F
:1020F0001EEA430F18BF9EEA445F00F0B08023EA57
:102100006E03524221EA0451C3EB6E0338BF5B1EDB
:10211000DCF1200E25D322FA0CFE10EB0E0043FA60
:102120000CFE41EB0E01CCF1200E03FA0EFE10EB7B
:102130000E0051F10001CCF1200E29D412FA0EF25A
:1021400001EB0451BDE8104058BF7047401C1CBF54
:10215000B2F1004F704700280CBF491C20F001006D
:10216000704712EB020E43EB030218BF4FF0010E53
:102170004EEA4202ACF1200CDCF11E0E54D943FAB7
:102180000CFE10EB0E0051F1FF31CCF11E0ED5D537
:102190000EF1010E12FA0EFE404141EB010101EB7E
:1021A000445C5FEA5C5C10D910EBDE7001EB04511B
:1021B00038BFBEF1004FBDE8104018BF704700287F
:1021C0000CBF491C20F00100704730D24FEAD42CDC
:1021D00011F5001124F400641BD0B1FA81F20B3A1E
:1021E000A41AA41ED2F12003914030FA03F319433C
:1021F000904001EBCC71002C01EB0451BDE8104084
:10220000A8BF704701F1C0414FF0000001F000414C
:102210007047B0FA80F310FA03F100D110BDE41A50
:10222000173C4805C90AE4E701EB045110BD491009
:1022300001EB0451BDE810404FEA300002E04FF0DE
:10224000000170474A0008BF0042F8D0B2F5001FF5
:1022500028BF704701F000414FF0000070479EEA30
:10226000445F07D011EA5E0FBDE8104004BF0021B3
:1022700000207047BDE8104070B5FFF7CBFE00BFEF
:1022800040DFF63E83F00041104670470000E0FF5B
:1022900043004FEAD30C4FEA3C0C43401FBF4007BA
:1022A0000CF1605113F0FE4F70471CF0006F03D12A
:1022B00000200CF0004170470CF0004343EA5070DE
:1022C00010B540EACC0000F0E8F900BF0000009231
:1022D0004FEA0001FFF7ECBE4FF000414FF0000065
:1022E000A1F500217047000090EA010F48BF81F07E
:1022F000004100F12482421A3CBF801A89184FEA3B
:10230000D0524FF07F4C1CEA410FA2EBD15318BFC3
:102310009CEA026F00F03B804FF0004C4CEA00203A
:102320004CEA012121FA03FC10EB0C0C1ED202F145
:10233000FF325FEA1C2040EBC25038BF70471CF0F0
:102340007F0F4FEA400C18BFBCF17F4F38BF70477A
:10235000C3F12003994008BF20F00100BCF17F4F7A
:1023600038BF7047A0F1C04000F0DDB94FEA3C0033
:10237000000A40EBC25028BF1CF0FF0F4FEA400C90
:10238000E6D018BFBCF17F4F38BF7047EAE79CEA40
:10239000026F05D010EA5C0F08BF00F000407047E4
:1023A00010B500F07AF900BF64FBBE3E4FF47F0C1D
:1023B0001CEAD0121EBF1CEAD11392EA0C0F93EA5A
:1023C0000C0F00F0858090EA010F48BF42F4807244
:1023D00040F4000C41F400002CF07F4120F07F40DD
:1023E00000B58142A2EB03020FF2081CACEB504E89
:1023F000C0F100009EF800E04FEA4E0E00FB0EFC1C
:1024000038BF49004FEA2C1C02F5FA020CFB0EF310
:102410004FEACE1E4FEA112C4FEAC1210EEB635E4C
:1024200042EB22420EFB0CFC4FEA1C5300FB031153
:102430004FEA112C4FEA01310EFB0CFC4FEADC4C49
:1024400000FB0C11C14228BF09184CEB03335DF8A7
:1024500004EB10EB410143EBC250B2F57C0F38BFE7
:10246000704729D512F0F00F1CBF00F1C04000F0FA
:1024700000407047008182838485868788898B8CA1
:102480008D8E8F919293959697999A9C9D9FA0A2DD
:10249000A3A5A7A8AAACAEB0B2B3B5B7B9BCBEC02D
:1024A000C2C5C7C9CCCED1D4D7D9DCDFE2E6E9ECCE
:1024B000F0F3F7FAFE0000004FEA400C0CF1807CCC
:1024C000BCF17E4F28BF7047B0F1C04000F02BB97F
:1024D00090EA010F0CEAD11348BF42F480726245C2
:1024E00038BF634507D213F47F0F16D080EA01008E
:1024F00000F00040704710B500F0CFF8097EFC3EB8
:1025000000F005B880EA010000F00040704780EA62
:10251000010000F0004000F006B912F47F0F04BF84
:102520000248704780EA010000F0FDB80000C07F5B
:1025300041000B0ED3F19E0208D950F400034FEA7C
:10254000032323FA02F048BF4042704710B500F061
:10255000A4F800BF49922480002070476FF0004229
:1025600082EA20007047000010F0004148BF40425E
:10257000B0FA80F310FA03F2C3F19D030BD051EAD5
:10258000C35101EB1220530638BF704700F1010020
:1025900008BF20F0010070474FF47F0C1CEAD012F6
:1025A0001EBF1CEAD11392EA0C0F93EA0C0F00F045
:1025B000478090EA010F48BF42F480724FF0004C10
:1025C0004CEA00204CEA012102EB0302A0FB0113BC
:1025D000A2F50002002918BF43F001035B0028BFE9
:1025E0004FEA330342EB22425FEA132C4CEBC2501A
:1025F0002EBFBCEB436FB2F57C0F70474FEA036C04
:10260000BCF1004F08BF20F00100B2F57C0F38BFCD
:1026100070470BD582F0FF0212F5803FC8BF7047AC
:1026200000F1C040D8BF00F00040704700F5000C3A
:102630005FEA4C0C48BF7047B0F1C04000F073B87F
:1026400090EA010F0CEAD11348BF42F48072624550
:1026500038BF634504D280EA010000F000407047B3
:1026600010B500F01AF800BF8900013E00F007B86D
:1026700000F009B85FEA410C5FEA1C6C08D080EA00
:10268000010000F050B85FEA400C5FEA1C6CF6D124
:102690004FF00040A0F5800070470EF1020E2EF0C2
:1026A000030E5EF8044B244204D44FEA4102B2F117
:1026B0007F4F11D84FEA4003B3F17F4F0CD80ED1B2
:1026C0004FEAD07CB2F17F4F0CEB4C0C0CF1020CBA
:1026D00008BF4CEBD17C04E04FF0080C01E04FEA5E
:1026E000D17C0CEB4C0324FA03F404F00704B4F19E
:1026F000040C06D20EEB840CBDE810404CF0010C2B
:102700006047DFE80CF0070802024FF00040A0F538
:10271000800010BD0846420018BFD2F1807288BF09
:1027200000F0004010BDFF2141EAD050C0057047C5
:1027300090EA010F48BF81F000413FF5DCAD421A3D
:1027400004D882F00042A0EB020011444FEAD052BC
:102750004FF07F4C1CEA410FA2EBD15318BF9CEA0B
:10276000026F4AD04FF0004C4CEA00204CEA0121A5
:1027700021FA03FCB0EB0C0C0FD412F0FE0F36D094
:102780005FEA4C001DD5001240EBC25038BF7047C5
:102790001CF03F0F18BF70470BE0A2F101025FEA87
:1027A0001C2040EBC25038BF70471CF07F0F18BF91
:1027B0007047C3F12003994014BF401E20F0010070
:1027C000704780084FEA122308BF7047B0FA80FCB8
:1027D000A2EB0C02CCF1280C60FA0CF093EA122F59
:1027E00004BF00EBC25070474FEAC3707047130A32
:1027F0005FEADC1008BF7047F6E79CEA026F04D07E
:1028000010EA5C0F08BF0020704710B5FFF745FFC6
:1028100040DFF63E81F000407047010202030405EC
:10282000060708090A0B0C0D0E0F1010000000001F
:102830000000000001020304060708095C280008E4
:10284000000000201800000028010008742800087B
:102850001800002068070000440100080000000084
:102860000000000001000000100000000000000057
:042870000024F4004C
:04000005080000ED02
:00000001FF
